{
  "contractName": "CarbonCreditToken",
  "abi": [
    {
      "inputs": [
        {
          "internalType": "address",
          "name": "_erc20TokenAddress",
          "type": "address"
        }
      ],
      "payable": false,
      "stateMutability": "nonpayable",
      "type": "constructor"
    },
    {
      "anonymous": false,
      "inputs": [
        {
          "indexed": false,
          "internalType": "address",
          "name": "recipient",
          "type": "address"
        },
        {
          "indexed": false,
          "internalType": "uint256",
          "name": "amt",
          "type": "uint256"
        }
      ],
      "name": "CCTMinted",
      "type": "event"
    },
    {
      "constant": false,
      "inputs": [
        {
          "internalType": "address",
          "name": "recipient",
          "type": "address"
        },
        {
          "internalType": "uint256",
          "name": "amtOfCCT",
          "type": "uint256"
        }
      ],
      "name": "getCCT",
      "outputs": [
        {
          "internalType": "uint256",
          "name": "",
          "type": "uint256"
        }
      ],
      "payable": true,
      "stateMutability": "payable",
      "type": "function"
    },
    {
      "constant": true,
      "inputs": [
        {
          "internalType": "address",
          "name": "ad",
          "type": "address"
        }
      ],
      "name": "checkCCT",
      "outputs": [
        {
          "internalType": "uint256",
          "name": "",
          "type": "uint256"
        }
      ],
      "payable": false,
      "stateMutability": "view",
      "type": "function"
    },
    {
      "constant": false,
      "inputs": [
        {
          "internalType": "address",
          "name": "recipient",
          "type": "address"
        },
        {
          "internalType": "uint256",
          "name": "amt",
          "type": "uint256"
        }
      ],
      "name": "transferCCT",
      "outputs": [],
      "payable": false,
      "stateMutability": "nonpayable",
      "type": "function"
    },
    {
      "constant": false,
      "inputs": [
        {
          "internalType": "address",
          "name": "sender",
          "type": "address"
        },
        {
          "internalType": "address",
          "name": "recipient",
          "type": "address"
        },
        {
          "internalType": "uint256",
          "name": "amt",
          "type": "uint256"
        }
      ],
      "name": "transferCCTFrom",
      "outputs": [],
      "payable": false,
      "stateMutability": "nonpayable",
      "type": "function"
    },
    {
      "constant": false,
      "inputs": [
        {
          "internalType": "address",
          "name": "tokenOwner",
          "type": "address"
        },
        {
          "internalType": "uint256",
          "name": "tokenAmount",
          "type": "uint256"
        }
      ],
      "name": "destroyCCT",
      "outputs": [
        {
          "internalType": "uint256",
          "name": "",
          "type": "uint256"
        }
      ],
      "payable": false,
      "stateMutability": "nonpayable",
      "type": "function"
    }
  ],
  "bytecode": "0x608060405233600160006101000a81548173ffffffffffffffffffffffffffffffffffffffff021916908373ffffffffffffffffffffffffffffffffffffffff16021790555034801561005157600080fd5b50604051611b10380380611b108339818101604052602081101561007457600080fd5b810190808051906020019092919050505060006040516100939061013a565b604051809103906000f0801580156100af573d6000803e3d6000fd5b509050806000806101000a81548173ffffffffffffffffffffffffffffffffffffffff021916908373ffffffffffffffffffffffffffffffffffffffff16021790555033600160006101000a81548173ffffffffffffffffffffffffffffffffffffffff021916908373ffffffffffffffffffffffffffffffffffffffff1602179055505050610147565b61110280610a0e83390190565b6108b8806101566000396000f3fe60806040526004361061004a5760003560e01c806321b9bdfa1461004f5780632e1a8975146100be57806368cac8b214610119578063768a95a71461017e578063ce8c8e62146101f9575b600080fd5b34801561005b57600080fd5b506100a86004803603604081101561007257600080fd5b81019080803573ffffffffffffffffffffffffffffffffffffffff1690602001909291908035906020019092919050505061025b565b6040518082815260200191505060405180910390f35b3480156100ca57600080fd5b50610117600480360360408110156100e157600080fd5b81019080803573ffffffffffffffffffffffffffffffffffffffff169060200190929190803590602001909291905050506103c8565b005b34801561012557600080fd5b506101686004803603602081101561013c57600080fd5b81019080803573ffffffffffffffffffffffffffffffffffffffff1690602001909291905050506104b0565b6040518082815260200191505060405180910390f35b34801561018a57600080fd5b506101f7600480360360608110156101a157600080fd5b81019080803573ffffffffffffffffffffffffffffffffffffffff169060200190929190803573ffffffffffffffffffffffffffffffffffffffff16906020019092919080359060200190929190505050610597565b005b6102456004803603604081101561020f57600080fd5b81019080803573ffffffffffffffffffffffffffffffffffffffff169060200190929190803590602001909291905050506106b4565b6040518082815260200191505060405180910390f35b600081610267846104b0565b10156102db576040517f08c379a00000000000000000000000000000000000000000000000000000000081526004018080602001828103825260188152602001807f496e73756666696369656e742043435420746f206275726e000000000000000081525060200191505060405180910390fd5b6000809054906101000a900473ffffffffffffffffffffffffffffffffffffffff1673ffffffffffffffffffffffffffffffffffffffff16639dc29fac84846040518363ffffffff1660e01b8152600401808373ffffffffffffffffffffffffffffffffffffffff1673ffffffffffffffffffffffffffffffffffffffff16815260200182815260200192505050602060405180830381600087803b15801561038357600080fd5b505af1158015610397573d6000803e3d6000fd5b505050506040513d60208110156103ad57600080fd5b81019080805190602001909291905050505081905092915050565b6000809054906101000a900473ffffffffffffffffffffffffffffffffffffffff1673ffffffffffffffffffffffffffffffffffffffff1663a9059cbb83836040518363ffffffff1660e01b8152600401808373ffffffffffffffffffffffffffffffffffffffff1673ffffffffffffffffffffffffffffffffffffffff16815260200182815260200192505050602060405180830381600087803b15801561047057600080fd5b505af1158015610484573d6000803e3d6000fd5b505050506040513d602081101561049a57600080fd5b8101908080519060200190929190505050505050565b6000806000809054906101000a900473ffffffffffffffffffffffffffffffffffffffff1673ffffffffffffffffffffffffffffffffffffffff166370a08231846040518263ffffffff1660e01b8152600401808273ffffffffffffffffffffffffffffffffffffffff1673ffffffffffffffffffffffffffffffffffffffff16815260200191505060206040518083038186803b15801561055157600080fd5b505afa158015610565573d6000803e3d6000fd5b505050506040513d602081101561057b57600080fd5b8101908080519060200190929190505050905080915050919050565b6000809054906101000a900473ffffffffffffffffffffffffffffffffffffffff1673ffffffffffffffffffffffffffffffffffffffff166323b872dd8484846040518463ffffffff1660e01b8152600401808473ffffffffffffffffffffffffffffffffffffffff1673ffffffffffffffffffffffffffffffffffffffff1681526020018373ffffffffffffffffffffffffffffffffffffffff1673ffffffffffffffffffffffffffffffffffffffff1681526020018281526020019350505050602060405180830381600087803b15801561067357600080fd5b505af1158015610687573d6000803e3d6000fd5b505050506040513d602081101561069d57600080fd5b810190808051906020019092919050505050505050565b600080821161072b576040517f08c379a00000000000000000000000000000000000000000000000000000000081526004018080602001828103825260208152602001807f416d6f756e74206d7573742062652067726561746572207468616e207a65726f81525060200191505060405180910390fd5b6000809054906101000a900473ffffffffffffffffffffffffffffffffffffffff1673ffffffffffffffffffffffffffffffffffffffff166340c10f1984846040518363ffffffff1660e01b8152600401808373ffffffffffffffffffffffffffffffffffffffff1673ffffffffffffffffffffffffffffffffffffffff16815260200182815260200192505050602060405180830381600087803b1580156107d357600080fd5b505af11580156107e7573d6000803e3d6000fd5b505050506040513d60208110156107fd57600080fd5b8101908080519060200190929190505050507ff29df43ed4871ac710fcf724c506723c48c7e717ad6b35fb39be74df621096ed8383604051808373ffffffffffffffffffffffffffffffffffffffff1673ffffffffffffffffffffffffffffffffffffffff1681526020018281526020019250505060405180910390a18190509291505056fea265627a7a7231582046265fd837c00423840648a06a882c0528d6e9d794864be4070db7c22d57c98364736f6c63430005110032608060405260008060006101000a81548160ff02191690831515021790555033600060016101000a81548173ffffffffffffffffffffffffffffffffffffffff021916908373ffffffffffffffffffffffffffffffffffffffff16021790555034801561006b57600080fd5b506110878061007b6000396000f3fe608060405234801561001057600080fd5b50600436106100a95760003560e01c806370a082311161007157806370a0823114610263578063893d20e8146102bb5780638da5cb5b1461030557806395d89b411461034f5780639dc29fac146103d2578063a9059cbb14610438576100a9565b806305d2035b146100ae57806306fdde03146100d057806323b872dd14610153578063313ce567146101d957806340c10f19146101fd575b600080fd5b6100b661049e565b604051808215151515815260200191505060405180910390f35b6100d86104b0565b6040518080602001828103825283818151815260200191508051906020019080838360005b838110156101185780820151818401526020810190506100fd565b50505050905090810190601f1680156101455780820380516001836020036101000a031916815260200191505b509250505060405180910390f35b6101bf6004803603606081101561016957600080fd5b81019080803573ffffffffffffffffffffffffffffffffffffffff169060200190929190803573ffffffffffffffffffffffffffffffffffffffff169060200190929190803590602001909291905050506104e9565b604051808215151515815260200191505060405180910390f35b6101e1610974565b604051808260ff1660ff16815260200191505060405180910390f35b6102496004803603604081101561021357600080fd5b81019080803573ffffffffffffffffffffffffffffffffffffffff16906020019092919080359060200190929190505050610979565b604051808215151515815260200191505060405180910390f35b6102a56004803603602081101561027957600080fd5b81019080803573ffffffffffffffffffffffffffffffffffffffff169060200190929190505050610b5b565b6040518082815260200191505060405180910390f35b6102c3610ba4565b604051808273ffffffffffffffffffffffffffffffffffffffff1673ffffffffffffffffffffffffffffffffffffffff16815260200191505060405180910390f35b61030d610bcd565b604051808273ffffffffffffffffffffffffffffffffffffffff1673ffffffffffffffffffffffffffffffffffffffff16815260200191505060405180910390f35b610357610bf3565b6040518080602001828103825283818151815260200191508051906020019080838360005b8381101561039757808201518184015260208101905061037c565b50505050905090810190601f1680156103c45780820380516001836020036101000a031916815260200191505b509250505060405180910390f35b61041e600480360360408110156103e857600080fd5b81019080803573ffffffffffffffffffffffffffffffffffffffff16906020019092919080359060200190929190505050610c2c565b604051808215151515815260200191505060405180910390f35b6104846004803603604081101561044e57600080fd5b81019080803573ffffffffffffffffffffffffffffffffffffffff16906020019092919080359060200190929190505050610d8f565b604051808215151515815260200191505060405180910390f35b6000809054906101000a900460ff1681565b6040518060400160405280601181526020017f436172626f6e437265646974546f6b656e00000000000000000000000000000081525081565b60008073ffffffffffffffffffffffffffffffffffffffff168373ffffffffffffffffffffffffffffffffffffffff16141561052457600080fd5b600260008573ffffffffffffffffffffffffffffffffffffffff1673ffffffffffffffffffffffffffffffffffffffff168152602001908152602001600020548211156105d9576040517f08c379a00000000000000000000000000000000000000000000000000000000081526004018080602001828103825260208152602001807f46726f6d20646f65736e2774206861766520656e6f7567682062616c616e636581525060200191505060405180910390fd5b600160008573ffffffffffffffffffffffffffffffffffffffff1673ffffffffffffffffffffffffffffffffffffffff16815260200190815260200160002060003273ffffffffffffffffffffffffffffffffffffffff1673ffffffffffffffffffffffffffffffffffffffff168152602001908152602001600020548211156106cb576040517f08c379a000000000000000000000000000000000000000000000000000000000815260040180806020018281038252601e8152602001807f4e6f7420616c6c6f77656420746f207370656e642074686973206d756368000081525060200191505060405180910390fd5b61071d82600260008773ffffffffffffffffffffffffffffffffffffffff1673ffffffffffffffffffffffffffffffffffffffff16815260200190815260200160002054610ffb90919063ffffffff16565b600260008673ffffffffffffffffffffffffffffffffffffffff1673ffffffffffffffffffffffffffffffffffffffff168152602001908152602001600020819055506107b282600260008673ffffffffffffffffffffffffffffffffffffffff1673ffffffffffffffffffffffffffffffffffffffff1681526020019081526020016000205461101290919063ffffffff16565b600260008573ffffffffffffffffffffffffffffffffffffffff1673ffffffffffffffffffffffffffffffffffffffff1681526020019081526020016000208190555061088482600160008773ffffffffffffffffffffffffffffffffffffffff1673ffffffffffffffffffffffffffffffffffffffff16815260200190815260200160002060003273ffffffffffffffffffffffffffffffffffffffff1673ffffffffffffffffffffffffffffffffffffffff16815260200190815260200160002054610ffb90919063ffffffff16565b600160008673ffffffffffffffffffffffffffffffffffffffff1673ffffffffffffffffffffffffffffffffffffffff16815260200190815260200160002060003273ffffffffffffffffffffffffffffffffffffffff1673ffffffffffffffffffffffffffffffffffffffff168152602001908152602001600020819055508273ffffffffffffffffffffffffffffffffffffffff168473ffffffffffffffffffffffffffffffffffffffff167fddf252ad1be2c89b69c2b068fc378daa952ba7f163c4a11628f55a4df523b3ef846040518082815260200191505060405180910390a3600190509392505050565b601281565b60008060019054906101000a900473ffffffffffffffffffffffffffffffffffffffff1673ffffffffffffffffffffffffffffffffffffffff163373ffffffffffffffffffffffffffffffffffffffff16146109d457600080fd5b6000809054906101000a900460ff16156109ed57600080fd5b610a028260035461101290919063ffffffff16565b600381905550610a5a82600260008673ffffffffffffffffffffffffffffffffffffffff1673ffffffffffffffffffffffffffffffffffffffff1681526020019081526020016000205461101290919063ffffffff16565b600260008573ffffffffffffffffffffffffffffffffffffffff1673ffffffffffffffffffffffffffffffffffffffff168152602001908152602001600020819055508273ffffffffffffffffffffffffffffffffffffffff167f0f6798a560793a54c3bcfe86a93cde1e73087d944c0ea20544137d4121396885836040518082815260200191505060405180910390a28273ffffffffffffffffffffffffffffffffffffffff16600073ffffffffffffffffffffffffffffffffffffffff167fddf252ad1be2c89b69c2b068fc378daa952ba7f163c4a11628f55a4df523b3ef846040518082815260200191505060405180910390a36001905092915050565b6000600260008373ffffffffffffffffffffffffffffffffffffffff1673ffffffffffffffffffffffffffffffffffffffff168152602001908152602001600020549050919050565b60008060019054906101000a900473ffffffffffffffffffffffffffffffffffffffff16905090565b600060019054906101000a900473ffffffffffffffffffffffffffffffffffffffff1681565b6040518060400160405280600381526020017f434354000000000000000000000000000000000000000000000000000000000081525081565b60008060019054906101000a900473ffffffffffffffffffffffffffffffffffffffff1673ffffffffffffffffffffffffffffffffffffffff163373ffffffffffffffffffffffffffffffffffffffff1614610c8757600080fd5b610c9c82600354610ffb90919063ffffffff16565b600381905550610cf482600260008673ffffffffffffffffffffffffffffffffffffffff1673ffffffffffffffffffffffffffffffffffffffff16815260200190815260200160002054610ffb90919063ffffffff16565b600260008573ffffffffffffffffffffffffffffffffffffffff1673ffffffffffffffffffffffffffffffffffffffff168152602001908152602001600020819055508273ffffffffffffffffffffffffffffffffffffffff167fcc16f5dbb4873280815c1ee09dbd06736cffcc184412cf7a71a0fdb75d397ca5836040518082815260200191505060405180910390a26001905092915050565b60008073ffffffffffffffffffffffffffffffffffffffff168373ffffffffffffffffffffffffffffffffffffffff161415610dca57600080fd5b600260003273ffffffffffffffffffffffffffffffffffffffff1673ffffffffffffffffffffffffffffffffffffffff16815260200190815260200160002054821115610e62576040517f08c379a000000000000000000000000000000000000000000000000000000000815260040180806020018281038252602681526020018061102d6026913960400191505060405180910390fd5b610eb482600260003273ffffffffffffffffffffffffffffffffffffffff1673ffffffffffffffffffffffffffffffffffffffff16815260200190815260200160002054610ffb90919063ffffffff16565b600260003273ffffffffffffffffffffffffffffffffffffffff1673ffffffffffffffffffffffffffffffffffffffff16815260200190815260200160002081905550610f4982600260008673ffffffffffffffffffffffffffffffffffffffff1673ffffffffffffffffffffffffffffffffffffffff1681526020019081526020016000205461101290919063ffffffff16565b600260008573ffffffffffffffffffffffffffffffffffffffff1673ffffffffffffffffffffffffffffffffffffffff168152602001908152602001600020819055508273ffffffffffffffffffffffffffffffffffffffff163273ffffffffffffffffffffffffffffffffffffffff167fddf252ad1be2c89b69c2b068fc378daa952ba7f163c4a11628f55a4df523b3ef846040518082815260200191505060405180910390a36001905092915050565b60008282111561100757fe5b818303905092915050565b600081830190508281101561102357fe5b8090509291505056fe6d73672e73656e64657220646f65736e2774206861766520656e6f7567682062616c616e6365a265627a7a723158200730cec5604f67a3d0e725561933f696e61df27b3423f8bf3d74d5286ed055e664736f6c63430005110032",
  "source": "pragma solidity ^0.5.0;\n\nimport \"./ERC20.sol\";\n\n\n/**\n * @title CarbonCreditToken\n * @dev A token contract representing Carbon Credit Tokens.\n */\ncontract CarbonCreditToken {\n\n    // Events\n    event CCTMinted(address recipient, uint256 amt);\n\n\n    // State variables\n    ERC20 erc20Contract;\n    address owner = msg.sender;\n\n    constructor(address _erc20TokenAddress) public {\n        ERC20 e = new ERC20();\n        erc20Contract = e;\n        owner = msg.sender;\n    } \n\n\n    /**\n     * @dev Function to mint Carbon Credit Tokens (CCT) to the recipient.\n     * @param recipient Address of the recipient that will receive the CCT.\n     * @param amtOfCCT Amount of CCT to mint.\n     * @return The amount of CCT minted.\n     */\n    function getCCT(\n        address recipient,\n        uint256 amtOfCCT\n    ) public payable returns (uint256) {\n        require(amtOfCCT > 0, \"Amount must be greater than zero\");\n        //1 ether = 1 CCT, no need to convert weiAmt to CCT\n        erc20Contract.mint(recipient, amtOfCCT);\n        emit CCTMinted(recipient, amtOfCCT);\n        return amtOfCCT;\n    }\n\n\n    /**\n     * @dev Function to check the credit of the owner\n     * @param ad address of the owner\n     * @return uint256 credit of the owner\n     */    \n    function checkCCT(address ad) public view returns (uint256) {\n        uint256 credit = erc20Contract.balanceOf(ad);\n        return credit;\n    }\n\n\n    /**\n     * @dev Function to transfer CCT from the owner to the recipient\n     * @param recipient address of the recipient\n     * @param amt amount of CCT to transfer\n     */\n    function transferCCT(address recipient, uint256 amt) public {\n        // Transfers from tx.origin to receipient\n        erc20Contract.transfer(recipient, amt);\n    }\n\n\n    /**\n     * @dev Function to transfer CCT from the owner to the recipient\n     * @param sender address of the sender\n     * @param recipient address of the recipient\n     * @param amt amount of CCT to transfer\n     */\n    function transferCCTFrom(\n        address sender,\n        address recipient,\n        uint256 amt\n    ) public {\n        // Transfers from tx.origin to receipient\n        erc20Contract.transferFrom(sender, recipient, amt);\n    }\n\n\n    /**\n     * @dev Function to destroy CCT\n     * @param tokenOwner address of the owner\n     * @param tokenAmount amount of CCT to destroy\n     * @return uint256 amount of CCT destroyed\n     */\n    function destroyCCT(\n        address tokenOwner,\n        uint256 tokenAmount\n    ) public returns (uint256) {\n        require(\n            checkCCT(tokenOwner) >= tokenAmount,\n            \"Insufficient CCT to burn\"\n        );\n        erc20Contract.burn(tokenOwner, tokenAmount);\n        return tokenAmount;\n    }\n}\n",
  "sourcePath": "/Users/elizabeth/Desktop/is4302/groupproject/is4302/contracts/CarbonCreditToken.sol",
  "compiler": {
    "name": "solc",
    "version": "0.5.17+commit.d19bba13.Emscripten.clang"
  },
  "schemaVersion": "3.4.16",
  "updatedAt": "2024-04-21T03:02:25.658Z",
  "devdoc": {
    "details": "A token contract representing Carbon Credit Tokens.",
    "methods": {
      "checkCCT(address)": {
        "details": "Function to check the credit of the owner",
        "params": {
          "ad": "address of the owner"
        },
        "return": "uint256 credit of the owner"
      },
      "destroyCCT(address,uint256)": {
        "details": "Function to destroy CCT",
        "params": {
          "tokenAmount": "amount of CCT to destroy",
          "tokenOwner": "address of the owner"
        },
        "return": "uint256 amount of CCT destroyed"
      },
      "getCCT(address,uint256)": {
        "details": "Function to mint Carbon Credit Tokens (CCT) to the recipient.",
        "params": {
          "amtOfCCT": "Amount of CCT to mint.",
          "recipient": "Address of the recipient that will receive the CCT."
        },
        "return": "The amount of CCT minted."
      },
      "transferCCT(address,uint256)": {
        "details": "Function to transfer CCT from the owner to the recipient",
        "params": {
          "amt": "amount of CCT to transfer",
          "recipient": "address of the recipient"
        }
      },
      "transferCCTFrom(address,address,uint256)": {
        "details": "Function to transfer CCT from the owner to the recipient",
        "params": {
          "amt": "amount of CCT to transfer",
          "recipient": "address of the recipient",
          "sender": "address of the sender"
        }
      }
    },
    "title": "CarbonCreditToken"
  },
  "userdoc": {
    "methods": {}
  }
}