{
  "contractName": "CarbonCreditMarket",
  "abi": [
    {
      "inputs": [
        {
          "internalType": "contract Company",
          "name": "companyAddress",
          "type": "address"
        },
        {
          "internalType": "contract CarbonCreditToken",
          "name": "carbonCreditTokenAddress",
          "type": "address"
        },
        {
          "internalType": "contract ValidatorRegistry",
          "name": "validatorRegistryAddress",
          "type": "address"
        }
      ],
      "payable": false,
      "stateMutability": "nonpayable",
      "type": "constructor"
    },
    {
      "anonymous": false,
      "inputs": [
        {
          "indexed": false,
          "internalType": "address",
          "name": "buyer",
          "type": "address"
        },
        {
          "indexed": false,
          "internalType": "uint256",
          "name": "amount",
          "type": "uint256"
        }
      ],
      "name": "BuyCredit",
      "type": "event"
    },
    {
      "anonymous": false,
      "inputs": [
        {
          "indexed": false,
          "internalType": "address",
          "name": "sender",
          "type": "address"
        },
        {
          "indexed": false,
          "internalType": "uint256",
          "name": "amount",
          "type": "uint256"
        }
      ],
      "name": "EtherReceived",
      "type": "event"
    },
    {
      "anonymous": false,
      "inputs": [
        {
          "indexed": false,
          "internalType": "address",
          "name": "companyAddress",
          "type": "address"
        },
        {
          "indexed": false,
          "internalType": "uint256",
          "name": "projectId",
          "type": "uint256"
        }
      ],
      "name": "Penalty",
      "type": "event"
    },
    {
      "anonymous": false,
      "inputs": [
        {
          "indexed": false,
          "internalType": "address",
          "name": "companyAddress",
          "type": "address"
        },
        {
          "indexed": false,
          "internalType": "uint256",
          "name": "projectId",
          "type": "uint256"
        },
        {
          "indexed": false,
          "internalType": "bool",
          "name": "isValid",
          "type": "bool"
        }
      ],
      "name": "ProjectValidated",
      "type": "event"
    },
    {
      "anonymous": false,
      "inputs": [
        {
          "indexed": false,
          "internalType": "address",
          "name": "seller",
          "type": "address"
        },
        {
          "indexed": false,
          "internalType": "uint256",
          "name": "amount",
          "type": "uint256"
        }
      ],
      "name": "ReturnCredits",
      "type": "event"
    },
    {
      "constant": true,
      "inputs": [
        {
          "internalType": "address",
          "name": "",
          "type": "address"
        },
        {
          "internalType": "uint256",
          "name": "",
          "type": "uint256"
        }
      ],
      "name": "companyProjects",
      "outputs": [
        {
          "internalType": "uint256",
          "name": "",
          "type": "uint256"
        }
      ],
      "payable": false,
      "stateMutability": "view",
      "type": "function"
    },
    {
      "constant": true,
      "inputs": [
        {
          "internalType": "address",
          "name": "",
          "type": "address"
        }
      ],
      "name": "isSeller",
      "outputs": [
        {
          "internalType": "bool",
          "name": "",
          "type": "bool"
        }
      ],
      "payable": false,
      "stateMutability": "view",
      "type": "function"
    },
    {
      "constant": true,
      "inputs": [
        {
          "internalType": "address",
          "name": "",
          "type": "address"
        }
      ],
      "name": "isVerifier",
      "outputs": [
        {
          "internalType": "bool",
          "name": "",
          "type": "bool"
        }
      ],
      "payable": false,
      "stateMutability": "view",
      "type": "function"
    },
    {
      "constant": true,
      "inputs": [
        {
          "internalType": "uint256",
          "name": "",
          "type": "uint256"
        },
        {
          "internalType": "uint256",
          "name": "",
          "type": "uint256"
        }
      ],
      "name": "projectBuyers",
      "outputs": [
        {
          "internalType": "address",
          "name": "",
          "type": "address"
        }
      ],
      "payable": false,
      "stateMutability": "view",
      "type": "function"
    },
    {
      "constant": true,
      "inputs": [
        {
          "internalType": "address",
          "name": "",
          "type": "address"
        },
        {
          "internalType": "uint256",
          "name": "",
          "type": "uint256"
        }
      ],
      "name": "projectStakes",
      "outputs": [
        {
          "internalType": "uint256",
          "name": "",
          "type": "uint256"
        }
      ],
      "payable": false,
      "stateMutability": "view",
      "type": "function"
    },
    {
      "constant": true,
      "inputs": [
        {
          "internalType": "address",
          "name": "",
          "type": "address"
        },
        {
          "internalType": "uint256",
          "name": "",
          "type": "uint256"
        }
      ],
      "name": "relisted",
      "outputs": [
        {
          "internalType": "uint256",
          "name": "",
          "type": "uint256"
        }
      ],
      "payable": false,
      "stateMutability": "view",
      "type": "function"
    },
    {
      "constant": false,
      "inputs": [],
      "name": "fallback",
      "outputs": [],
      "payable": true,
      "stateMutability": "payable",
      "type": "function"
    },
    {
      "constant": false,
      "inputs": [
        {
          "internalType": "address payable",
          "name": "companyAddress",
          "type": "address"
        },
        {
          "internalType": "uint256",
          "name": "amount",
          "type": "uint256"
        }
      ],
      "name": "withdrawEther",
      "outputs": [],
      "payable": false,
      "stateMutability": "nonpayable",
      "type": "function"
    },
    {
      "constant": true,
      "inputs": [
        {
          "internalType": "uint256",
          "name": "_cctAmount",
          "type": "uint256"
        },
        {
          "internalType": "uint256",
          "name": "etherAmount",
          "type": "uint256"
        }
      ],
      "name": "checkSufficientStake",
      "outputs": [
        {
          "internalType": "bool",
          "name": "",
          "type": "bool"
        }
      ],
      "payable": false,
      "stateMutability": "pure",
      "type": "function"
    },
    {
      "constant": false,
      "inputs": [
        {
          "internalType": "address payable",
          "name": "companyAddress",
          "type": "address"
        },
        {
          "internalType": "uint256",
          "name": "projectId",
          "type": "uint256"
        },
        {
          "internalType": "bool",
          "name": "isValid",
          "type": "bool"
        },
        {
          "internalType": "uint256",
          "name": "actualCCT",
          "type": "uint256"
        }
      ],
      "name": "validateProject",
      "outputs": [],
      "payable": false,
      "stateMutability": "nonpayable",
      "type": "function"
    },
    {
      "constant": false,
      "inputs": [
        {
          "internalType": "uint256",
          "name": "_cctAmount",
          "type": "uint256"
        },
        {
          "internalType": "uint256",
          "name": "projectId",
          "type": "uint256"
        }
      ],
      "name": "sell",
      "outputs": [],
      "payable": true,
      "stateMutability": "payable",
      "type": "function"
    },
    {
      "constant": false,
      "inputs": [
        {
          "internalType": "uint256",
          "name": "_cctAmount",
          "type": "uint256"
        },
        {
          "internalType": "address payable",
          "name": "companyAddress",
          "type": "address"
        },
        {
          "internalType": "uint256",
          "name": "projectId",
          "type": "uint256"
        }
      ],
      "name": "buy",
      "outputs": [],
      "payable": true,
      "stateMutability": "payable",
      "type": "function"
    }
  ],
  "bytecode": "0x6080604052600060035533600460006101000a81548173ffffffffffffffffffffffffffffffffffffffff021916908373ffffffffffffffffffffffffffffffffffffffff16021790555034801561005657600080fd5b50604051612b16380380612b168339818101604052606081101561007957600080fd5b81019080805190602001909291908051906020019092919080519060200190929190505050816000806101000a81548173ffffffffffffffffffffffffffffffffffffffff021916908373ffffffffffffffffffffffffffffffffffffffff16021790555080600160006101000a81548173ffffffffffffffffffffffffffffffffffffffff021916908373ffffffffffffffffffffffffffffffffffffffff16021790555082600260006101000a81548173ffffffffffffffffffffffffffffffffffffffff021916908373ffffffffffffffffffffffffffffffffffffffff1602179055505050506129a4806101726000396000f3fe6080604052600436106100a75760003560e01c8063552079dc11610064578063552079dc1461032b578063d2394c1314610335578063d79875eb146103a6578063df4d761f146103de578063ee95feaf1461043b578063f785bd5a146104a4576100a7565b80630b6b90a9146100ac57806322876376146101315780632afaca20146101a057806333105218146101f85780634a4f1da114610261578063522f6815146102d0575b600080fd5b3480156100b857600080fd5b506100ef600480360360408110156100cf57600080fd5b810190808035906020019092919080359060200190929190505050610513565b604051808273ffffffffffffffffffffffffffffffffffffffff1673ffffffffffffffffffffffffffffffffffffffff16815260200191505060405180910390f35b34801561013d57600080fd5b5061018a6004803603604081101561015457600080fd5b81019080803573ffffffffffffffffffffffffffffffffffffffff1690602001909291908035906020019092919050505061055e565b6040518082815260200191505060405180910390f35b6101f6600480360360608110156101b657600080fd5b8101908080359060200190929190803573ffffffffffffffffffffffffffffffffffffffff1690602001909291908035906020019092919050505061058c565b005b34801561020457600080fd5b506102476004803603602081101561021b57600080fd5b81019080803573ffffffffffffffffffffffffffffffffffffffff169060200190929190505050610d83565b604051808215151515815260200191505060405180910390f35b34801561026d57600080fd5b506102ba6004803603604081101561028457600080fd5b81019080803573ffffffffffffffffffffffffffffffffffffffff16906020019092919080359060200190929190505050610da3565b6040518082815260200191505060405180910390f35b3480156102dc57600080fd5b50610329600480360360408110156102f357600080fd5b81019080803573ffffffffffffffffffffffffffffffffffffffff16906020019092919080359060200190929190505050610dc8565b005b610333610f2f565b005b34801561034157600080fd5b506103a46004803603608081101561035857600080fd5b81019080803573ffffffffffffffffffffffffffffffffffffffff1690602001909291908035906020019092919080351515906020019092919080359060200190929190505050610f9c565b005b6103dc600480360360408110156103bc57600080fd5b810190808035906020019092919080359060200190929190505050611807565b005b3480156103ea57600080fd5b506104216004803603604081101561040157600080fd5b810190808035906020019092919080359060200190929190505050612228565b604051808215151515815260200191505060405180910390f35b34801561044757600080fd5b5061048a6004803603602081101561045e57600080fd5b81019080803573ffffffffffffffffffffffffffffffffffffffff169060200190929190505050612248565b604051808215151515815260200191505060405180910390f35b3480156104b057600080fd5b506104fd600480360360408110156104c757600080fd5b81019080803573ffffffffffffffffffffffffffffffffffffffff16906020019092919080359060200190929190505050612268565b6040518082815260200191505060405180910390f35b6008602052816000526040600020818154811061052c57fe5b906000526020600020016000915091509054906101000a900473ffffffffffffffffffffffffffffffffffffffff1681565b6007602052816000526040600020818154811061057757fe5b90600052602060002001600091509150505481565b60008311610602576040517f08c379a000000000000000000000000000000000000000000000000000000000815260040180806020018281038252600e8152602001807f496e76616c696420616d6f756e7400000000000000000000000000000000000081525060200191505060405180910390fd5b823414610677576040517f08c379a000000000000000000000000000000000000000000000000000000000815260040180806020018281038252600e8152602001807f496e76616c696420616d6f756e7400000000000000000000000000000000000081525060200191505060405180910390fd5b600260009054906101000a900473ffffffffffffffffffffffffffffffffffffffff1673ffffffffffffffffffffffffffffffffffffffff1663f955a4133383866040518463ffffffff1660e01b8152600401808473ffffffffffffffffffffffffffffffffffffffff1673ffffffffffffffffffffffffffffffffffffffff168152602001838152602001828152602001935050505060206040518083038186803b15801561072657600080fd5b505afa15801561073a573d6000803e3d6000fd5b505050506040513d602081101561075057600080fd5b81019080805190602001909291905050506107b6576040517f08c379a00000000000000000000000000000000000000000000000000000000081526004018080602001828103825260228152602001806129246022913960400191505060405180910390fd5b600260009054906101000a900473ffffffffffffffffffffffffffffffffffffffff1673ffffffffffffffffffffffffffffffffffffffff16639841b68d8383866040518463ffffffff1660e01b8152600401808473ffffffffffffffffffffffffffffffffffffffff1673ffffffffffffffffffffffffffffffffffffffff1681526020018381526020018281526020019350505050600060405180830381600087803b15801561086757600080fd5b505af115801561087b573d6000803e3d6000fd5b5050505060018081111561088b57fe5b600260009054906101000a900473ffffffffffffffffffffffffffffffffffffffff1673ffffffffffffffffffffffffffffffffffffffff1663e0155714836040518263ffffffff1660e01b81526004018082815260200191505060206040518083038186803b1580156108fe57600080fd5b505afa158015610912573d6000803e3d6000fd5b505050506040513d602081101561092857600080fd5b8101908080519060200190929190505050600181111561094457fe5b1415610b8a57600a60008373ffffffffffffffffffffffffffffffffffffffff1673ffffffffffffffffffffffffffffffffffffffff168152602001908152602001600020600082815260200190815260200160002054831115610a10576040517f08c379a00000000000000000000000000000000000000000000000000000000081526004018080602001828103825260178152602001807f496e73756666756369656e742043435420746f2062757900000000000000000081525060200191505060405180910390fd5b8260036000828254039250508190555082600a60008473ffffffffffffffffffffffffffffffffffffffff1673ffffffffffffffffffffffffffffffffffffffff1681526020019081526020016000206000838152602001908152602001600020600082825403925050819055506000809054906101000a900473ffffffffffffffffffffffffffffffffffffffff1673ffffffffffffffffffffffffffffffffffffffff16632e1a897533856040518363ffffffff1660e01b8152600401808373ffffffffffffffffffffffffffffffffffffffff1673ffffffffffffffffffffffffffffffffffffffff16815260200182815260200192505050600060405180830381600087803b158015610b2657600080fd5b505af1158015610b3a573d6000803e3d6000fd5b505050508173ffffffffffffffffffffffffffffffffffffffff166108fc349081150290604051600060405180830381858888f19350505050158015610b84573d6000803e3d6000fd5b50610d7e565b82600960003373ffffffffffffffffffffffffffffffffffffffff1673ffffffffffffffffffffffffffffffffffffffff1681526020019081526020016000206000838152602001908152602001600020600082825401925050819055506000600860008381526020019081526020016000209050600080905060008090505b8280549050811015610c92573373ffffffffffffffffffffffffffffffffffffffff16838281548110610c3957fe5b9060005260206000200160009054906101000a900473ffffffffffffffffffffffffffffffffffffffff1673ffffffffffffffffffffffffffffffffffffffff161415610c8557600191505b8080600101915050610c0a565b5080610d1057600860008481526020019081526020016000203390806001815401808255809150509060018203906000526020600020016000909192909190916101000a81548173ffffffffffffffffffffffffffffffffffffffff021916908373ffffffffffffffffffffffffffffffffffffffff160217905550505b7f62bc306e27ea992b4fe17bf6ae7d2618241afa1a5cc4dd29590e0613dc77f47e3386604051808373ffffffffffffffffffffffffffffffffffffffff1673ffffffffffffffffffffffffffffffffffffffff1681526020018281526020019250505060405180910390a150505b505050565b60056020528060005260406000206000915054906101000a900460ff1681565b6009602052816000526040600020602052806000526040600020600091509150505481565b600460009054906101000a900473ffffffffffffffffffffffffffffffffffffffff1673ffffffffffffffffffffffffffffffffffffffff163373ffffffffffffffffffffffffffffffffffffffff1614610e6e576040517f08c379a000000000000000000000000000000000000000000000000000000000815260040180806020018281038252602a815260200180612946602a913960400191505060405180910390fd5b47811115610ee4576040517f08c379a000000000000000000000000000000000000000000000000000000000815260040180806020018281038252601d8152602001807f496e73756666696369656e7420636f6e74726163742062616c616e636500000081525060200191505060405180910390fd5b8173ffffffffffffffffffffffffffffffffffffffff166108fc829081150290604051600060405180830381858888f19350505050158015610f2a573d6000803e3d6000fd5b505050565b7f1e57e3bb474320be3d2c77138f75b7c3941292d647f5f9634e33a8e94e0e069b3334604051808373ffffffffffffffffffffffffffffffffffffffff1673ffffffffffffffffffffffffffffffffffffffff1681526020018281526020019250505060405180910390a1565b600160009054906101000a900473ffffffffffffffffffffffffffffffffffffffff1673ffffffffffffffffffffffffffffffffffffffff1663facd743b336040518263ffffffff1660e01b8152600401808273ffffffffffffffffffffffffffffffffffffffff1673ffffffffffffffffffffffffffffffffffffffff16815260200191505060206040518083038186803b15801561103b57600080fd5b505afa15801561104f573d6000803e3d6000fd5b505050506040513d602081101561106557600080fd5b81019080805190602001909291905050506110cb576040517f08c379a00000000000000000000000000000000000000000000000000000000081526004018080602001828103825260258152602001806128ff6025913960400191505060405180910390fd5b6001808111156110d757fe5b600260009054906101000a900473ffffffffffffffffffffffffffffffffffffffff1673ffffffffffffffffffffffffffffffffffffffff1663e0155714856040518263ffffffff1660e01b81526004018082815260200191505060206040518083038186803b15801561114a57600080fd5b505afa15801561115e573d6000803e3d6000fd5b505050506040513d602081101561117457600080fd5b8101908080519060200190929190505050600181111561119057fe5b14156111e7576040517f08c379a000000000000000000000000000000000000000000000000000000000815260040180806020018281038252602c8152602001806128d3602c913960400191505060405180910390fd5b600260009054906101000a900473ffffffffffffffffffffffffffffffffffffffff1673ffffffffffffffffffffffffffffffffffffffff1663dd8c9c9f846040518263ffffffff1660e01b815260040180828152602001915050600060405180830381600087803b15801561125c57600080fd5b505af1158015611270573d6000803e3d6000fd5b505050507f99c9063f4fc4a080eac1f1de08fe0c36d9a5ee798519dc7a33c2461d407d2dc8848484604051808473ffffffffffffffffffffffffffffffffffffffff1673ffffffffffffffffffffffffffffffffffffffff16815260200183815260200182151515158152602001935050505060405180910390a181611300576112fb84848361228d565b611801565b600060086000858152602001908152602001600020905060008090505b818054905081101561150257600082828154811061133757fe5b9060005260206000200160009054906101000a900473ffffffffffffffffffffffffffffffffffffffff1690506000600960008373ffffffffffffffffffffffffffffffffffffffff1673ffffffffffffffffffffffffffffffffffffffff16815260200190815260200160002060008881526020019081526020016000205490506000809054906101000a900473ffffffffffffffffffffffffffffffffffffffff1673ffffffffffffffffffffffffffffffffffffffff1663ce8c8e6283836040518363ffffffff1660e01b8152600401808373ffffffffffffffffffffffffffffffffffffffff1673ffffffffffffffffffffffffffffffffffffffff16815260200182815260200192505050602060405180830381600087803b15801561146157600080fd5b505af1158015611475573d6000803e3d6000fd5b505050506040513d602081101561148b57600080fd5b8101908080519060200190929190505050506000600960008473ffffffffffffffffffffffffffffffffffffffff1673ffffffffffffffffffffffffffffffffffffffff1681526020019081526020016000206000898152602001908152602001600020819055505050808060010191505061131d565b506000600260009054906101000a900473ffffffffffffffffffffffffffffffffffffffff1673ffffffffffffffffffffffffffffffffffffffff1663f49d31d3866040518263ffffffff1660e01b81526004018082815260200191505060206040518083038186803b15801561157857600080fd5b505afa15801561158c573d6000803e3d6000fd5b505050506040513d60208110156115a257600080fd5b81019080805190602001909291905050509050600260009054906101000a900473ffffffffffffffffffffffffffffffffffffffff1673ffffffffffffffffffffffffffffffffffffffff16639abe2f3f86836040518363ffffffff1660e01b81526004018083815260200182815260200192505050600060405180830381600087803b15801561163257600080fd5b505af1158015611646573d6000803e3d6000fd5b505050506000600260009054906101000a900473ffffffffffffffffffffffffffffffffffffffff1673ffffffffffffffffffffffffffffffffffffffff166353cd258288886040518363ffffffff1660e01b8152600401808373ffffffffffffffffffffffffffffffffffffffff1673ffffffffffffffffffffffffffffffffffffffff1681526020018281526020019250505060206040518083038186803b1580156116f357600080fd5b505afa158015611707573d6000803e3d6000fd5b505050506040513d602081101561171d57600080fd5b8101908080519060200190929190505050905060006103e8600383028161174057fe5b0490506117fc88600260009054906101000a900473ffffffffffffffffffffffffffffffffffffffff1673ffffffffffffffffffffffffffffffffffffffff16632f58ded78a6040518263ffffffff1660e01b81526004018082815260200191505060206040518083038186803b1580156117ba57600080fd5b505afa1580156117ce573d6000803e3d6000fd5b505050506040513d60208110156117e457600080fd5b81019080805190602001909291905050508301610dc8565b505050505b50505050565b6000821161187d576040517f08c379a000000000000000000000000000000000000000000000000000000000815260040180806020018281038252600e8152602001807f496e76616c696420616d6f756e7400000000000000000000000000000000000081525060200191505060405180910390fd5b600260009054906101000a900473ffffffffffffffffffffffffffffffffffffffff1673ffffffffffffffffffffffffffffffffffffffff1663883dc9753383856040518463ffffffff1660e01b8152600401808473ffffffffffffffffffffffffffffffffffffffff1673ffffffffffffffffffffffffffffffffffffffff168152602001838152602001828152602001935050505060206040518083038186803b15801561192c57600080fd5b505afa158015611940573d6000803e3d6000fd5b505050506040513d602081101561195657600080fd5b81019080805190602001909291905050506119d9576040517f08c379a000000000000000000000000000000000000000000000000000000000815260040180806020018281038252601c8152602001807f43435420666f722070726f6a656374206f76657265786365656465640000000081525060200191505060405180910390fd5b600260009054906101000a900473ffffffffffffffffffffffffffffffffffffffff1673ffffffffffffffffffffffffffffffffffffffff1663f955a4133383856040518463ffffffff1660e01b8152600401808473ffffffffffffffffffffffffffffffffffffffff1673ffffffffffffffffffffffffffffffffffffffff168152602001838152602001828152602001935050505060206040518083038186803b158015611a8857600080fd5b505afa158015611a9c573d6000803e3d6000fd5b505050506040513d6020811015611ab257600080fd5b8101908080519060200190929190505050611b35576040517f08c379a00000000000000000000000000000000000000000000000000000000081526004018080602001828103825260188152602001807f496e73756666696369656e742043435420746f2073656c6c000000000000000081525060200191505060405180910390fd5b600180811115611b4157fe5b600260009054906101000a900473ffffffffffffffffffffffffffffffffffffffff1673ffffffffffffffffffffffffffffffffffffffff1663e0155714836040518263ffffffff1660e01b81526004018082815260200191505060206040518083038186803b158015611bb457600080fd5b505afa158015611bc8573d6000803e3d6000fd5b505050506040513d6020811015611bde57600080fd5b81019080805190602001909291905050506001811115611bfa57fe5b1415611dfc578160036000828254019250508190555081600a60003373ffffffffffffffffffffffffffffffffffffffff1673ffffffffffffffffffffffffffffffffffffffff168152602001908152602001600020600083815260200190815260200160002060008282540192505081905550600260009054906101000a900473ffffffffffffffffffffffffffffffffffffffff1673ffffffffffffffffffffffffffffffffffffffff16639b6db7ee3383856040518463ffffffff1660e01b8152600401808473ffffffffffffffffffffffffffffffffffffffff1673ffffffffffffffffffffffffffffffffffffffff1681526020018381526020018281526020019350505050600060405180830381600087803b158015611d1f57600080fd5b505af1158015611d33573d6000803e3d6000fd5b505050506000809054906101000a900473ffffffffffffffffffffffffffffffffffffffff1673ffffffffffffffffffffffffffffffffffffffff16632e1a897530846040518363ffffffff1660e01b8152600401808373ffffffffffffffffffffffffffffffffffffffff1673ffffffffffffffffffffffffffffffffffffffff16815260200182815260200192505050600060405180830381600087803b158015611ddf57600080fd5b505af1158015611df3573d6000803e3d6000fd5b505050506121b9565b611e068234612228565b611e78576040517f08c379a000000000000000000000000000000000000000000000000000000000815260040180806020018281038252601b8152602001807f496e73756666696369656e7420657468657220746f207374616b65000000000081525060200191505060405180910390fd5b6000600a600d840281611e8757fe5b049050600260009054906101000a900473ffffffffffffffffffffffffffffffffffffffff1673ffffffffffffffffffffffffffffffffffffffff166361854d203384846040518463ffffffff1660e01b8152600401808473ffffffffffffffffffffffffffffffffffffffff1673ffffffffffffffffffffffffffffffffffffffff1681526020018381526020018281526020019350505050600060405180830381600087803b158015611f3b57600080fd5b505af1158015611f4f573d6000803e3d6000fd5b505050503373ffffffffffffffffffffffffffffffffffffffff166108fc829081150290604051600060405180830381858888f19350505050158015611f99573d6000803e3d6000fd5b50600260009054906101000a900473ffffffffffffffffffffffffffffffffffffffff1673ffffffffffffffffffffffffffffffffffffffff16639b6db7ee3384866040518463ffffffff1660e01b8152600401808473ffffffffffffffffffffffffffffffffffffffff1673ffffffffffffffffffffffffffffffffffffffff1681526020018381526020018281526020019350505050600060405180830381600087803b15801561204b57600080fd5b505af115801561205f573d6000803e3d6000fd5b505050506000600760003373ffffffffffffffffffffffffffffffffffffffff1673ffffffffffffffffffffffffffffffffffffffff1681526020019081526020016000209050600080905060008090505b82805490508110156120ed57848382815481106120ca57fe5b906000526020600020015414156120e057600191505b80806001019150506120b1565b508061215d57600760003373ffffffffffffffffffffffffffffffffffffffff1673ffffffffffffffffffffffffffffffffffffffff1681526020019081526020016000208490806001815401808255809150509060018203906000526020600020016000909192909190915055505b6001600660003373ffffffffffffffffffffffffffffffffffffffff1673ffffffffffffffffffffffffffffffffffffffff16815260200190815260200160002060006101000a81548160ff0219169083151502179055505050505b7f65532e881dcde6f4430830cdb3554179d3ecf95577975cc080aeed0d401452463383604051808373ffffffffffffffffffffffffffffffffffffffff1673ffffffffffffffffffffffffffffffffffffffff1681526020018281526020019250505060405180910390a15050565b600080600a600d85028161223857fe5b0490508083101591505092915050565b60066020528060005260406000206000915054906101000a900460ff1681565b600a602052816000526040600020602052806000526040600020600091509150505481565b7f322e5021ddf51920f7602154a6c845b34ef1b32704a1fa2c66927b56be2807628383604051808373ffffffffffffffffffffffffffffffffffffffff1673ffffffffffffffffffffffffffffffffffffffff1681526020018281526020019250505060405180910390a160008090505b60086000848152602001908152602001600020805490508110156128cc57600060086000858152602001908152602001600020828154811061233c57fe5b9060005260206000200160009054906101000a900473ffffffffffffffffffffffffffffffffffffffff16905060008190506000600960008473ffffffffffffffffffffffffffffffffffffffff1673ffffffffffffffffffffffffffffffffffffffff1681526020019081526020016000206000878152602001908152602001600020549050600260009054906101000a900473ffffffffffffffffffffffffffffffffffffffff1673ffffffffffffffffffffffffffffffffffffffff16632f58ded7876040518263ffffffff1660e01b81526004018082815260200191505060206040518083038186803b15801561243657600080fd5b505afa15801561244a573d6000803e3d6000fd5b505050506040513d602081101561246057600080fd5b810190808051906020019092919050505085106125fa576000809054906101000a900473ffffffffffffffffffffffffffffffffffffffff1673ffffffffffffffffffffffffffffffffffffffff1663ce8c8e6284836040518363ffffffff1660e01b8152600401808373ffffffffffffffffffffffffffffffffffffffff1673ffffffffffffffffffffffffffffffffffffffff16815260200182815260200192505050602060405180830381600087803b15801561251f57600080fd5b505af1158015612533573d6000803e3d6000fd5b505050506040513d602081101561254957600080fd5b8101908080519060200190929190505050508085039450600260009054906101000a900473ffffffffffffffffffffffffffffffffffffffff1673ffffffffffffffffffffffffffffffffffffffff16639abe2f3f87876040518363ffffffff1660e01b81526004018083815260200182815260200192505050600060405180830381600087803b1580156125dd57600080fd5b505af11580156125f1573d6000803e3d6000fd5b505050506127af565b6000600260009054906101000a900473ffffffffffffffffffffffffffffffffffffffff1673ffffffffffffffffffffffffffffffffffffffff16632f58ded7886040518263ffffffff1660e01b81526004018082815260200191505060206040518083038186803b15801561266f57600080fd5b505afa158015612683573d6000803e3d6000fd5b505050506040513d602081101561269957600080fd5b8101908080519060200190929190505050868302816126b457fe5b0490506000809054906101000a900473ffffffffffffffffffffffffffffffffffffffff1673ffffffffffffffffffffffffffffffffffffffff1663ce8c8e6285836040518363ffffffff1660e01b8152600401808373ffffffffffffffffffffffffffffffffffffffff1673ffffffffffffffffffffffffffffffffffffffff16815260200182815260200192505050602060405180830381600087803b15801561275f57600080fd5b505af1158015612773573d6000803e3d6000fd5b505050506040513d602081101561278957600080fd5b810190808051906020019092919050505050600081830390506127ac8482610dc8565b50505b61286687600260009054906101000a900473ffffffffffffffffffffffffffffffffffffffff1673ffffffffffffffffffffffffffffffffffffffff16632f58ded7896040518263ffffffff1660e01b81526004018082815260200191505060206040518083038186803b15801561282657600080fd5b505afa15801561283a573d6000803e3d6000fd5b505050506040513d602081101561285057600080fd5b8101908080519060200190929190505050610dc8565b6000600960008573ffffffffffffffffffffffffffffffffffffffff1673ffffffffffffffffffffffffffffffffffffffff16815260200190815260200160002060008881526020019081526020016000208190555050505080806001019150506122fe565b5050505056fe50726f6a65637420636f6d706c657465642c2063616e6e6f742062652076616c69646174656420616761696e4f6e6c792076616c696461746f722063616e2063616c6c20746869732066756e6374696f6e496e73756666696369656e742043435420696e2070726f6a65637420746f206275794f6e6c7920636f6e7472616374206f776e65722063616e2063616c6c20746869732066756e6374696f6ea265627a7a72315820ef57c45e163d3f40cfd4f4562cdea18d50054f706c01f380c83f0b177275767a64736f6c63430005110032",
  "source": "pragma solidity ^0.5.0;\n\nimport \"./ValidatorRegistry.sol\";\nimport \"./CarbonCreditToken.sol\";\nimport \"./Company.sol\";\n\n/**\n * @title CarbonCreditMarket\n * @dev This contract represents a carbon credit market where users can buy and sell carbon credits.\n */\ncontract CarbonCreditMarket {\n    // Events\n    event BuyCredit(address buyer, uint256 amount);\n    event ReturnCredits(address seller, uint256 amount);\n    event ProjectValidated(\n        address companyAddress,\n        uint256 projectId,\n        bool isValid\n    );\n    event Penalty(address companyAddress, uint256 projectId);\n    event EtherReceived(address sender, uint256 amount);\n\n    // State variables\n    CarbonCreditToken carbonCreditTokenInstance;\n    ValidatorRegistry validatorRegistryInstance;\n    Company companyInstance;\n    uint256 cctBank = 0;\n    address _owner = msg.sender;\n    mapping(address => bool) public isVerifier;\n    mapping(address => bool) public isSeller;\n    mapping(address => uint256[]) public companyProjects; // Mapping of company address to list of projects\n    mapping(uint256 => address[]) public projectBuyers; // Mapping of project id to list of buyers\n    mapping(address => mapping(uint256 => uint256)) public projectStakes; //mapping of buyer address to project id to amount\n    mapping(address => mapping(uint256 => uint256)) public relisted; // Mapping of company address to projectId to their ccts sold, due to listing project that have been validated\n\n    // Constructor\n    constructor(\n        Company companyAddress,\n        CarbonCreditToken carbonCreditTokenAddress,\n        ValidatorRegistry validatorRegistryAddress\n    ) public {\n        carbonCreditTokenInstance = carbonCreditTokenAddress;\n        validatorRegistryInstance = validatorRegistryAddress;\n        companyInstance = companyAddress;\n    }\n\n    function fallback() external payable {\n        // Emit an event to log the sender and the amount of Ether received\n        emit EtherReceived(msg.sender, msg.value);\n    }\n\n    /**\n     * @dev Modifier that allows only the contract owner to call the function.\n     */\n    modifier onlyOwner() {\n        require(\n            msg.sender == _owner,\n            \"Only contract owner can call this function\"\n        );\n        _;\n    }\n\n    /**\n     * @dev Modifier that restricts the execution of a function to only be called by a registered validator.\n     */\n    modifier onlyValidator() {\n        require(\n            validatorRegistryInstance.isValidator(msg.sender),\n            \"Only validator can call this function\"\n        );\n        _;\n    }\n\n    /**\n     * @dev Allows the contract owner to withdraw a specified amount of Ether from the contract balance and transfer it to a specified company address.\n     * @param companyAddress The address of the company to which the Ether will be transferred.\n     * @param amount The amount of Ether to be withdrawn and transferred.\n     * @notice Only the contract owner can call this function.\n     * @dev Throws an error if the specified amount is greater than the contract balance.\n     */\n    function withdrawEther(\n        address payable companyAddress,\n        uint256 amount\n    ) public onlyOwner {\n        require(\n            amount <= address(this).balance,\n            \"Insufficient contract balance\"\n        );\n        companyAddress.transfer(amount);\n    }\n\n    /**\n     * @dev Check whether or not a company has provided enough Ether to stake for a project (for penalty purposes).\n     * @param _cctAmount The amount of cct they wish to sell from the project.\n     * @param etherAmount The amount of Ether supplied.\n     */\n    function checkSufficientStake(uint256 _cctAmount, uint256 etherAmount)\n        public pure\n        returns (bool)\n    {\n        uint256 stakedAmount = (_cctAmount * 13) / 10;\n        return etherAmount >= stakedAmount;\n    }\n\n    /**\n     * @dev Validate a project by a validator, and handle penalty if project is invalid, otherwise transfer CCT to buyers.\n     * @param companyAddress The address of the company.\n     * @param projectId The ID of the project.\n     * @param isValid A boolean indicating whether the project is valid or not.\n     * @param actualCCT The actual CCT (Carbon Credit Token) amount for the project.\n     * @notice This function can only be called by a validator.\n     */\n    function validateProject(\n        address payable companyAddress,\n        uint256 projectId,\n        bool isValid,\n        uint256 actualCCT\n    ) public onlyValidator {\n        // Validate a project by a validator, and handle penalty if project is invalid, otherwise transfer CCT to buyers\n        require(\n            companyInstance.getProjectState(projectId) !=\n                Company.ProjectState.completed,\n            \"Project completed, cannot be validated again\"\n        ); // Check if project is completed, cannot be validated again\n        companyInstance.setProjectStateComplete(projectId); // Set project state to completed\n        emit ProjectValidated(companyAddress, projectId, isValid); // Emit event for project validation\n        if (!isValid) {\n            // Project is invalid\n            handlePenalty(companyAddress, projectId, actualCCT);\n        } else {\n            // Project is valid\n            //Transfer CCT to buyers\n            address[] storage buyers = projectBuyers[projectId];\n            for (uint256 i = 0; i < buyers.length; i++) { // Loop through buyers of the project \n                address buyer = buyers[i];\n                uint256 buyerStake = projectStakes[buyer][projectId]; // Get buyer's stake for the project\n                carbonCreditTokenInstance.getCCT(buyer, buyerStake); // Mint CCT to buyer\n                projectStakes[buyer][projectId] = 0; // Reset buyer's stake to 0\n            }\n            // Project's CCTAmount left is returned to project\n            uint256 cctAmountUnsold = companyInstance.getProjectcctAmount(\n                projectId\n            );\n            companyInstance.setProjectcctAmount(projectId, cctAmountUnsold); // Update project's CCT amount, project can be resold with remaining CCT by seller\n            // Return penalty + profit to seller\n            uint256 stakedCredits = companyInstance.getStakedCredits( // Get staked credits (sellers stake 130% (of ether)) for the project\n                    companyAddress,\n                    projectId\n                );\n            uint256 returnPenalty = (stakedCredits * 3) / 1000; // Calculate penalty amount to return to seller\n            withdrawEther(\n                companyAddress,\n                returnPenalty + companyInstance.getCCTSold(projectId)\n            ); // Return penalty amount and profit back to seller\n        }\n    }\n\n    /**\n     * @dev Handles penalty for a project that fails validation.\n     * @param companyAddress The address of the company associated with the project.\n     * @param projectId The ID of the project.\n     * @param actualCCT The actual Carbon Credit Tokens (CCT) generated by the project.\n     *\n     * Emits a `Penalty` event for the failed project.\n     * Loops through the buyers of the project and performs the following actions:\n     * - If the actual CCT is greater than or equal to the CCT sold, mints the actual CCT to the buyer.\n     * - If the actual CCT is less than the CCT sold, calculates the actual CCT received by the buyer,\n     *   mints the actual CCT to the buyer, and transfers the compensation amount to the buyer.\n     * Transfers the profits to the company and keeps the penalty amount.\n     * Resets the buyer's stake to 0.\n     */\n    function handlePenalty(\n        address payable companyAddress,\n        uint256 projectId,\n        uint256 actualCCT // Actual CCT generated by the project\n    ) internal {\n        // Handle penalty for a project that fails validation\n        emit Penalty(companyAddress, projectId);\n        for (uint256 i = 0; i < projectBuyers[projectId].length; i++) {\n            // Loop through buyers of the project\n            address buyer = projectBuyers[projectId][i]; // Get buyer address\n            address payable buyerPayable;\n            assembly {\n                buyerPayable := buyer\n            } //make buyer payable\n            uint256 buyerStake = projectStakes[buyer][projectId]; // Get buyer's stake for the project\n            if (actualCCT >= companyInstance.getCCTSold(projectId)) {\n                // If actual CCT is greater than or equal to CCT sold\n                carbonCreditTokenInstance.getCCT(buyer, buyerStake); // Mint actual CCT to buyer, penalty and profits kept by market\n                actualCCT -= buyerStake; // Reduce actual CCT by buyer's stake\n                companyInstance.setProjectcctAmount(projectId, actualCCT); // Update project's CCT amount, project can be resold with remaining CCT by seller\n            } else {\n                // If actual CCT is less than CCT sold\n                uint256 actualBuyerCCT = (buyerStake * actualCCT) /\n                    companyInstance.getCCTSold(projectId); // Calculate actual CCT received by the buyer\n                carbonCreditTokenInstance.getCCT(buyer, actualBuyerCCT); // Mint actual CCT to buyer\n                uint256 buyerCompensation = buyerStake - actualBuyerCCT; // Calculate compensation amount to buyer\n                withdrawEther(buyerPayable, buyerCompensation); // Transfer compensation amount to buyer\n            }\n            withdrawEther(\n                companyAddress,\n                companyInstance.getCCTSold(projectId)\n            ); // Transfer profits to company, penalty kept by market\n            projectStakes[buyer][projectId] = 0; // Reset buyer's stake to 0\n        }\n    }\n\n    /**\n     * @dev Allows a seller to list and sell carbon credit tokens (CCT) for a specific project.\n     * @param _cctAmount The amount of CCT to be sold.\n     * @param projectId The ID of the project for which the CCT is being sold.\n     *  The seller must have enough CCT listed for the project and sufficient CCT balance to sell.\n     *  If the project is completed, the CCT is transferred to the market and the seller receives ether.\n     *  If the project is ongoing, the seller must stake 130% of the CCT amount in ether.\n     *  The seller's ether is transferred to the contract for staking, with 30% being a penalty.\n     *  The CCT is listed and the project is added to the seller's list of projects.\n     *  Emits a `ReturnCredits` event with the seller's address and the amount of CCT sold.\n     */\n\n    function sell(uint256 _cctAmount, uint256 projectId) public payable {\n        //seller lists cct for sale anytime during project\n        require(_cctAmount > 0, \"Invalid amount\");\n        require(\n            companyInstance.checkCCTListed(msg.sender, projectId, _cctAmount),\n            \"CCT for project overexceeded\"\n        ); // Check if cctListed is <= to cctAmount, must have enuf cctAmount in project to sell\n        require(\n            companyInstance.checkSufficientCCT(\n                msg.sender,\n                projectId,\n                _cctAmount\n            ),\n            \"Insufficient CCT to sell\"\n        ); // Check if seller has enough cct to sell in project, especially after buy\n\n        if (\n            companyInstance.getProjectState(projectId) ==\n            Company.ProjectState.completed\n        ) {\n            // if project is completed\n            cctBank += _cctAmount; // add CCT to bank\n            relisted[msg.sender][projectId] += _cctAmount; // add cct from company to relisted\n            companyInstance.listCCT(msg.sender, projectId, _cctAmount); //update cctListed and cctAmount in project\n            carbonCreditTokenInstance.transferCCT(address(this), _cctAmount); // transfer CCT to market, from seller\n        } else {\n            //check if company has enough ether to stake only if project is ongoing\n            require(\n                checkSufficientStake(\n                _cctAmount,\n                msg.value\n                ),\n                \"Insufficient ether to stake\"\n            );\n            //Transfer the ether to contract for staking\n            uint256 stakedAmount = (_cctAmount * 13) / 10; // sellers stake 130% (of ether), 30% is penalty\n            companyInstance.stakeCredits(msg.sender, projectId, stakedAmount); //stake credits\n            msg.sender.transfer(stakedAmount); // Seller Transfer 130% ether to contract for staking, 30% is penalty\n            companyInstance.listCCT(msg.sender, projectId, _cctAmount); //update cctListed in project\n\n            //Check if project has been listed by company (if company has sold tokens from project before)\n            uint256[] storage projectList = companyProjects[msg.sender];\n            bool projectAdded = false;\n            for (uint256 i = 0; i < projectList.length; i++) {\n                if (projectList[i] == projectId) {\n                    projectAdded = true; // project already added\n                }\n            }\n            if (!projectAdded) {\n                companyProjects[msg.sender].push(projectId); // add project to list of projects\n            }\n            isSeller[msg.sender] = true; // add address of seller to list of sellers\n        }\n        emit ReturnCredits(msg.sender, _cctAmount);\n    }\n\n    /**\n     * @dev Allows a buyer to purchase carbon credits from a project.\n     * @param _cctAmount The amount of carbon credits to purchase.\n     * @param companyAddress The address of the company selling the carbon credits.\n     * @param projectId The ID of the project from which to purchase the carbon credits.\n     */\n    function buy(\n        uint256 _cctAmount,\n        address payable companyAddress,\n        uint256 projectId\n    ) public payable {\n        // UI: has to click on a project to buy -- hence project has to be listed for this function to be called; no checks needed\n        require(_cctAmount > 0, \"Invalid amount\");\n        require(msg.value == _cctAmount, \"Invalid amount\"); //ensure buyer gave correct amount of ether to contract for buying\n        require(\n            companyInstance.checkSufficientCCT(\n                msg.sender,\n                projectId,\n                _cctAmount\n            ),\n            \"Insufficient CCT in project to buy\"\n        ); // Check if buyer has enough cct to buy in project\n\n         companyInstance.sellCCT(companyAddress, projectId, _cctAmount); // update cctListed and cctAmount in project\n\n        if (\n            companyInstance.getProjectState(projectId) ==\n            Company.ProjectState.completed\n        ) { \n            require(\n                _cctAmount <= relisted[companyAddress][projectId],\n                \"Insuffucient CCT to buy\"\n            );\n            cctBank -= _cctAmount; // deduct CCT from bank\n            relisted[companyAddress][projectId] -= _cctAmount; // deduct CCT from company's relisted CCT\n            carbonCreditTokenInstance.transferCCT(msg.sender, _cctAmount); // transfer CCT to buyer from market\n            companyAddress.transfer(msg.value); // transfer ether to company\n        } else {\n            projectStakes[msg.sender][projectId] += _cctAmount; // add \"share\" of the project's CCT bought to the buyer\n\n            // check if buyer has bought from project before\n            address[] storage buyerList = projectBuyers[projectId];\n            bool buyerAdded = false;\n            for (uint256 i = 0; i < buyerList.length; i++) {\n                if (buyerList[i] == msg.sender) {\n                    buyerAdded = true;\n                }\n            }\n            if (!buyerAdded) {\n                projectBuyers[projectId].push(msg.sender);\n            }\n            emit BuyCredit(msg.sender, _cctAmount);\n        }\n    }\n}\n",
  "sourcePath": "/Users/mavischeng/Desktop/IS4302/is4302/contracts/CarbonCreditMarket.sol",
  "compiler": {
    "name": "solc",
    "version": "0.5.17+commit.d19bba13.Emscripten.clang"
  },
  "schemaVersion": "3.4.16",
  "updatedAt": "2024-04-20T15:22:22.991Z",
  "devdoc": {
    "details": "This contract represents a carbon credit market where users can buy and sell carbon credits.",
    "methods": {
      "buy(uint256,address,uint256)": {
        "details": "Allows a buyer to purchase carbon credits from a project.",
        "params": {
          "_cctAmount": "The amount of carbon credits to purchase.",
          "companyAddress": "The address of the company selling the carbon credits.",
          "projectId": "The ID of the project from which to purchase the carbon credits."
        }
      },
      "checkSufficientStake(uint256,uint256)": {
        "details": "Check whether or not a company has provided enough Ether to stake for a project (for penalty purposes).",
        "params": {
          "_cctAmount": "The amount of cct they wish to sell from the project.",
          "etherAmount": "The amount of Ether supplied."
        }
      },
      "sell(uint256,uint256)": {
        "details": "Allows a seller to list and sell carbon credit tokens (CCT) for a specific project.",
        "params": {
          "_cctAmount": "The amount of CCT to be sold.",
          "projectId": "The ID of the project for which the CCT is being sold. The seller must have enough CCT listed for the project and sufficient CCT balance to sell. If the project is completed, the CCT is transferred to the market and the seller receives ether. If the project is ongoing, the seller must stake 130% of the CCT amount in ether. The seller's ether is transferred to the contract for staking, with 30% being a penalty. The CCT is listed and the project is added to the seller's list of projects. Emits a `ReturnCredits` event with the seller's address and the amount of CCT sold."
        }
      },
      "validateProject(address,uint256,bool,uint256)": {
        "details": "Validate a project by a validator, and handle penalty if project is invalid, otherwise transfer CCT to buyers.",
        "params": {
          "actualCCT": "The actual CCT (Carbon Credit Token) amount for the project.",
          "companyAddress": "The address of the company.",
          "isValid": "A boolean indicating whether the project is valid or not.",
          "projectId": "The ID of the project."
        }
      },
      "withdrawEther(address,uint256)": {
        "details": "Allows the contract owner to withdraw a specified amount of Ether from the contract balance and transfer it to a specified company address.Throws an error if the specified amount is greater than the contract balance.",
        "params": {
          "amount": "The amount of Ether to be withdrawn and transferred.",
          "companyAddress": "The address of the company to which the Ether will be transferred."
        }
      }
    },
    "title": "CarbonCreditMarket"
  },
  "userdoc": {
    "methods": {
      "validateProject(address,uint256,bool,uint256)": {
        "notice": "This function can only be called by a validator."
      },
      "withdrawEther(address,uint256)": {
        "notice": "Only the contract owner can call this function."
      }
    }
  }
}