{
  "contractName": "CarbonCreditToken",
  "abi": [
    {
      "inputs": [],
      "payable": false,
      "stateMutability": "nonpayable",
      "type": "constructor"
    },
    {
      "constant": false,
      "inputs": [
        {
          "internalType": "address",
          "name": "recipient",
          "type": "address"
        },
        {
          "internalType": "uint256",
          "name": "weiAmt",
          "type": "uint256"
        }
      ],
      "name": "getCCT",
      "outputs": [
        {
          "internalType": "uint256",
          "name": "",
          "type": "uint256"
        }
      ],
      "payable": false,
      "stateMutability": "nonpayable",
      "type": "function"
    },
    {
      "constant": true,
      "inputs": [
        {
          "internalType": "address",
          "name": "ad",
          "type": "address"
        }
      ],
      "name": "checkCCT",
      "outputs": [
        {
          "internalType": "uint256",
          "name": "",
          "type": "uint256"
        }
      ],
      "payable": false,
      "stateMutability": "view",
      "type": "function"
    },
    {
      "constant": false,
      "inputs": [
        {
          "internalType": "address",
          "name": "recipient",
          "type": "address"
        },
        {
          "internalType": "uint256",
          "name": "amt",
          "type": "uint256"
        }
      ],
      "name": "transferCCT",
      "outputs": [],
      "payable": false,
      "stateMutability": "nonpayable",
      "type": "function"
    },
    {
      "constant": false,
      "inputs": [
        {
          "internalType": "address",
          "name": "sender",
          "type": "address"
        },
        {
          "internalType": "address",
          "name": "recipient",
          "type": "address"
        },
        {
          "internalType": "uint256",
          "name": "amt",
          "type": "uint256"
        }
      ],
      "name": "transferCCTFrom",
      "outputs": [],
      "payable": false,
      "stateMutability": "nonpayable",
      "type": "function"
    }
  ],
  "bytecode": "0x608060405234801561001057600080fd5b50600060405161001f906100c5565b604051809103906000f08015801561003b573d6000803e3d6000fd5b509050806000806101000a81548173ffffffffffffffffffffffffffffffffffffffff021916908373ffffffffffffffffffffffffffffffffffffffff16021790555033600160006101000a81548173ffffffffffffffffffffffffffffffffffffffff021916908373ffffffffffffffffffffffffffffffffffffffff160217905550506100d2565b610f2e806106ce83390190565b6105ed806100e16000396000f3fe608060405234801561001057600080fd5b506004361061004c5760003560e01c80632e1a89751461005157806368cac8b21461009f578063768a95a7146100f7578063ce8c8e6214610165575b600080fd5b61009d6004803603604081101561006757600080fd5b81019080803573ffffffffffffffffffffffffffffffffffffffff169060200190929190803590602001909291905050506101c7565b005b6100e1600480360360208110156100b557600080fd5b81019080803573ffffffffffffffffffffffffffffffffffffffff1690602001909291905050506102af565b6040518082815260200191505060405180910390f35b6101636004803603606081101561010d57600080fd5b81019080803573ffffffffffffffffffffffffffffffffffffffff169060200190929190803573ffffffffffffffffffffffffffffffffffffffff16906020019092919080359060200190929190505050610396565b005b6101b16004803603604081101561017b57600080fd5b81019080803573ffffffffffffffffffffffffffffffffffffffff169060200190929190803590602001909291905050506104b3565b6040518082815260200191505060405180910390f35b6000809054906101000a900473ffffffffffffffffffffffffffffffffffffffff1673ffffffffffffffffffffffffffffffffffffffff1663a9059cbb83836040518363ffffffff1660e01b8152600401808373ffffffffffffffffffffffffffffffffffffffff1673ffffffffffffffffffffffffffffffffffffffff16815260200182815260200192505050602060405180830381600087803b15801561026f57600080fd5b505af1158015610283573d6000803e3d6000fd5b505050506040513d602081101561029957600080fd5b8101908080519060200190929190505050505050565b6000806000809054906101000a900473ffffffffffffffffffffffffffffffffffffffff1673ffffffffffffffffffffffffffffffffffffffff166370a08231846040518263ffffffff1660e01b8152600401808273ffffffffffffffffffffffffffffffffffffffff1673ffffffffffffffffffffffffffffffffffffffff16815260200191505060206040518083038186803b15801561035057600080fd5b505afa158015610364573d6000803e3d6000fd5b505050506040513d602081101561037a57600080fd5b8101908080519060200190929190505050905080915050919050565b6000809054906101000a900473ffffffffffffffffffffffffffffffffffffffff1673ffffffffffffffffffffffffffffffffffffffff166323b872dd8484846040518463ffffffff1660e01b8152600401808473ffffffffffffffffffffffffffffffffffffffff1673ffffffffffffffffffffffffffffffffffffffff1681526020018373ffffffffffffffffffffffffffffffffffffffff1673ffffffffffffffffffffffffffffffffffffffff1681526020018281526020019350505050602060405180830381600087803b15801561047257600080fd5b505af1158015610486573d6000803e3d6000fd5b505050506040513d602081101561049c57600080fd5b810190808051906020019092919050505050505050565b600080670de0b6b3a764000083816104c757fe5b0490506000809054906101000a900473ffffffffffffffffffffffffffffffffffffffff1673ffffffffffffffffffffffffffffffffffffffff166340c10f1985836040518363ffffffff1660e01b8152600401808373ffffffffffffffffffffffffffffffffffffffff1673ffffffffffffffffffffffffffffffffffffffff16815260200182815260200192505050602060405180830381600087803b15801561057257600080fd5b505af1158015610586573d6000803e3d6000fd5b505050506040513d602081101561059c57600080fd5b810190808051906020019092919050505050809150509291505056fea265627a7a723158203f95db73e7dcbeef035aca2a0c70b4d51478078a484e2650552f89013d51da2d64736f6c63430005110032608060405260008060006101000a81548160ff02191690831515021790555033600060016101000a81548173ffffffffffffffffffffffffffffffffffffffff021916908373ffffffffffffffffffffffffffffffffffffffff16021790555034801561006b57600080fd5b50610eb38061007b6000396000f3fe608060405234801561001057600080fd5b506004361061009e5760003560e01c806370a082311161006657806370a0823114610258578063893d20e8146102b05780638da5cb5b146102fa57806395d89b4114610344578063a9059cbb146103c75761009e565b806305d2035b146100a357806306fdde03146100c557806323b872dd14610148578063313ce567146101ce57806340c10f19146101f2575b600080fd5b6100ab61042d565b604051808215151515815260200191505060405180910390f35b6100cd61043f565b6040518080602001828103825283818151815260200191508051906020019080838360005b8381101561010d5780820151818401526020810190506100f2565b50505050905090810190601f16801561013a5780820380516001836020036101000a031916815260200191505b509250505060405180910390f35b6101b46004803603606081101561015e57600080fd5b81019080803573ffffffffffffffffffffffffffffffffffffffff169060200190929190803573ffffffffffffffffffffffffffffffffffffffff16906020019092919080359060200190929190505050610478565b604051808215151515815260200191505060405180910390f35b6101d6610903565b604051808260ff1660ff16815260200191505060405180910390f35b61023e6004803603604081101561020857600080fd5b81019080803573ffffffffffffffffffffffffffffffffffffffff16906020019092919080359060200190929190505050610908565b604051808215151515815260200191505060405180910390f35b61029a6004803603602081101561026e57600080fd5b81019080803573ffffffffffffffffffffffffffffffffffffffff169060200190929190505050610aea565b6040518082815260200191505060405180910390f35b6102b8610b33565b604051808273ffffffffffffffffffffffffffffffffffffffff1673ffffffffffffffffffffffffffffffffffffffff16815260200191505060405180910390f35b610302610b5c565b604051808273ffffffffffffffffffffffffffffffffffffffff1673ffffffffffffffffffffffffffffffffffffffff16815260200191505060405180910390f35b61034c610b82565b6040518080602001828103825283818151815260200191508051906020019080838360005b8381101561038c578082015181840152602081019050610371565b50505050905090810190601f1680156103b95780820380516001836020036101000a031916815260200191505b509250505060405180910390f35b610413600480360360408110156103dd57600080fd5b81019080803573ffffffffffffffffffffffffffffffffffffffff16906020019092919080359060200190929190505050610bbb565b604051808215151515815260200191505060405180910390f35b6000809054906101000a900460ff1681565b6040518060400160405280601181526020017f436172626f6e437265646974546f6b656e00000000000000000000000000000081525081565b60008073ffffffffffffffffffffffffffffffffffffffff168373ffffffffffffffffffffffffffffffffffffffff1614156104b357600080fd5b600260008573ffffffffffffffffffffffffffffffffffffffff1673ffffffffffffffffffffffffffffffffffffffff16815260200190815260200160002054821115610568576040517f08c379a00000000000000000000000000000000000000000000000000000000081526004018080602001828103825260208152602001807f46726f6d20646f65736e2774206861766520656e6f7567682062616c616e636581525060200191505060405180910390fd5b600160008573ffffffffffffffffffffffffffffffffffffffff1673ffffffffffffffffffffffffffffffffffffffff16815260200190815260200160002060003273ffffffffffffffffffffffffffffffffffffffff1673ffffffffffffffffffffffffffffffffffffffff1681526020019081526020016000205482111561065a576040517f08c379a000000000000000000000000000000000000000000000000000000000815260040180806020018281038252601e8152602001807f4e6f7420616c6c6f77656420746f207370656e642074686973206d756368000081525060200191505060405180910390fd5b6106ac82600260008773ffffffffffffffffffffffffffffffffffffffff1673ffffffffffffffffffffffffffffffffffffffff16815260200190815260200160002054610e2790919063ffffffff16565b600260008673ffffffffffffffffffffffffffffffffffffffff1673ffffffffffffffffffffffffffffffffffffffff1681526020019081526020016000208190555061074182600260008673ffffffffffffffffffffffffffffffffffffffff1673ffffffffffffffffffffffffffffffffffffffff16815260200190815260200160002054610e3e90919063ffffffff16565b600260008573ffffffffffffffffffffffffffffffffffffffff1673ffffffffffffffffffffffffffffffffffffffff1681526020019081526020016000208190555061081382600160008773ffffffffffffffffffffffffffffffffffffffff1673ffffffffffffffffffffffffffffffffffffffff16815260200190815260200160002060003273ffffffffffffffffffffffffffffffffffffffff1673ffffffffffffffffffffffffffffffffffffffff16815260200190815260200160002054610e2790919063ffffffff16565b600160008673ffffffffffffffffffffffffffffffffffffffff1673ffffffffffffffffffffffffffffffffffffffff16815260200190815260200160002060003273ffffffffffffffffffffffffffffffffffffffff1673ffffffffffffffffffffffffffffffffffffffff168152602001908152602001600020819055508273ffffffffffffffffffffffffffffffffffffffff168473ffffffffffffffffffffffffffffffffffffffff167fddf252ad1be2c89b69c2b068fc378daa952ba7f163c4a11628f55a4df523b3ef846040518082815260200191505060405180910390a3600190509392505050565b601281565b60008060019054906101000a900473ffffffffffffffffffffffffffffffffffffffff1673ffffffffffffffffffffffffffffffffffffffff163373ffffffffffffffffffffffffffffffffffffffff161461096357600080fd5b6000809054906101000a900460ff161561097c57600080fd5b61099182600354610e3e90919063ffffffff16565b6003819055506109e982600260008673ffffffffffffffffffffffffffffffffffffffff1673ffffffffffffffffffffffffffffffffffffffff16815260200190815260200160002054610e3e90919063ffffffff16565b600260008573ffffffffffffffffffffffffffffffffffffffff1673ffffffffffffffffffffffffffffffffffffffff168152602001908152602001600020819055508273ffffffffffffffffffffffffffffffffffffffff167f0f6798a560793a54c3bcfe86a93cde1e73087d944c0ea20544137d4121396885836040518082815260200191505060405180910390a28273ffffffffffffffffffffffffffffffffffffffff16600073ffffffffffffffffffffffffffffffffffffffff167fddf252ad1be2c89b69c2b068fc378daa952ba7f163c4a11628f55a4df523b3ef846040518082815260200191505060405180910390a36001905092915050565b6000600260008373ffffffffffffffffffffffffffffffffffffffff1673ffffffffffffffffffffffffffffffffffffffff168152602001908152602001600020549050919050565b60008060019054906101000a900473ffffffffffffffffffffffffffffffffffffffff16905090565b600060019054906101000a900473ffffffffffffffffffffffffffffffffffffffff1681565b6040518060400160405280600381526020017f434354000000000000000000000000000000000000000000000000000000000081525081565b60008073ffffffffffffffffffffffffffffffffffffffff168373ffffffffffffffffffffffffffffffffffffffff161415610bf657600080fd5b600260003273ffffffffffffffffffffffffffffffffffffffff1673ffffffffffffffffffffffffffffffffffffffff16815260200190815260200160002054821115610c8e576040517f08c379a0000000000000000000000000000000000000000000000000000000008152600401808060200182810382526026815260200180610e596026913960400191505060405180910390fd5b610ce082600260003273ffffffffffffffffffffffffffffffffffffffff1673ffffffffffffffffffffffffffffffffffffffff16815260200190815260200160002054610e2790919063ffffffff16565b600260003273ffffffffffffffffffffffffffffffffffffffff1673ffffffffffffffffffffffffffffffffffffffff16815260200190815260200160002081905550610d7582600260008673ffffffffffffffffffffffffffffffffffffffff1673ffffffffffffffffffffffffffffffffffffffff16815260200190815260200160002054610e3e90919063ffffffff16565b600260008573ffffffffffffffffffffffffffffffffffffffff1673ffffffffffffffffffffffffffffffffffffffff168152602001908152602001600020819055508273ffffffffffffffffffffffffffffffffffffffff163273ffffffffffffffffffffffffffffffffffffffff167fddf252ad1be2c89b69c2b068fc378daa952ba7f163c4a11628f55a4df523b3ef846040518082815260200191505060405180910390a36001905092915050565b600082821115610e3357fe5b818303905092915050565b6000818301905082811015610e4f57fe5b8090509291505056fe6d73672e73656e64657220646f65736e2774206861766520656e6f7567682062616c616e6365a265627a7a72315820ec02f9e4509dc570b68c9d7c5048e2746569dcfb4ac104e8548e16366b04fa4064736f6c63430005110032",
  "source": "pragma solidity ^0.5.0;\n\nimport \"./ERC20.sol\";\n\ncontract CarbonCreditToken {\n    ERC20 erc20Contract;\n    address owner;\n\n    constructor() public {\n        ERC20 e = new ERC20();\n        erc20Contract = e;\n        owner = msg.sender;\n    }\n    /**\n    * @dev Function to give CCT to the recipient for a given wei amount\n    * @param recipient address of the recipient that wants to buy the DT\n    * @param weiAmt uint256 amount indicating the amount of wei that was passed\n    * @return A uint256 representing the amount of DT bought by the msg.sender.\n    */\n\n    function getCCT(address recipient, uint256 weiAmt)\n        public\n        returns (uint256)\n    {\n        //1 ether = 1 CCT\n        uint256 amt = weiAmt / (1000000000000000000); // Convert weiAmt to Carbon Credit Token\n        erc20Contract.mint(recipient, amt);\n        return amt; \n    }\n    /**\n    * @dev Function to check the amount of CCT the msg.sender has\n    * @param ad address of the recipient that wants to check their DT\n    * @return A uint256 representing the amount of DT owned by the msg.sender.\n    */\n   \n    function checkCCT(address ad) public view returns (uint256) {\n        uint256 credit = erc20Contract.balanceOf(ad);\n        return credit; \n    }\n    /**\n    * @dev Function to transfer the credit from the owner to the recipient\n    * @param recipient address of the recipient that will gain in DT\n    * @param amt uint256 aount of DT to transfer\n    */\n    function transferCCT(address recipient, uint256 amt) public {\n        // Transfers from tx.origin to receipient\n        erc20Contract.transfer(recipient, amt);\n    }\n\n    function transferCCTFrom(address sender, address recipient, uint256 amt) public {\n        // Transfers from tx.origin to receipient\n        erc20Contract.transferFrom(sender,recipient,amt);\n    }\n}\n",
  "sourcePath": "/Users/elizabeth/Desktop/is4302/groupproject/is4302/contracts/CarbonCreditToken.sol",
  "compiler": {
    "name": "solc",
    "version": "0.5.17+commit.d19bba13.Emscripten.clang"
  },
  "schemaVersion": "3.4.16",
  "updatedAt": "2024-03-15T11:46:23.444Z",
  "devdoc": {
    "methods": {
      "checkCCT(address)": {
        "details": "Function to check the amount of CCT the msg.sender has",
        "params": {
          "ad": "address of the recipient that wants to check their DT"
        },
        "return": "A uint256 representing the amount of DT owned by the msg.sender."
      },
      "getCCT(address,uint256)": {
        "details": "Function to give CCT to the recipient for a given wei amount",
        "params": {
          "recipient": "address of the recipient that wants to buy the DT",
          "weiAmt": "uint256 amount indicating the amount of wei that was passed"
        },
        "return": "A uint256 representing the amount of DT bought by the msg.sender."
      },
      "transferCCT(address,uint256)": {
        "details": "Function to transfer the credit from the owner to the recipient",
        "params": {
          "amt": "uint256 aount of DT to transfer",
          "recipient": "address of the recipient that will gain in DT"
        }
      }
    }
  },
  "userdoc": {
    "methods": {}
  }
}