{
  "contractName": "Company",
  "abi": [
    {
      "anonymous": false,
      "inputs": [
        {
          "indexed": false,
          "internalType": "address",
          "name": "companyAddress",
          "type": "address"
        }
      ],
      "name": "companyAdded",
      "type": "event"
    },
    {
      "anonymous": false,
      "inputs": [
        {
          "indexed": false,
          "internalType": "address",
          "name": "companyAddress",
          "type": "address"
        },
        {
          "indexed": false,
          "internalType": "uint256",
          "name": "projectId",
          "type": "uint256"
        }
      ],
      "name": "projectAdded",
      "type": "event"
    },
    {
      "constant": true,
      "inputs": [
        {
          "internalType": "address",
          "name": "",
          "type": "address"
        },
        {
          "internalType": "uint256",
          "name": "",
          "type": "uint256"
        }
      ],
      "name": "companyProjects",
      "outputs": [
        {
          "internalType": "uint256",
          "name": "",
          "type": "uint256"
        }
      ],
      "payable": false,
      "stateMutability": "view",
      "type": "function"
    },
    {
      "constant": true,
      "inputs": [],
      "name": "numCompanies",
      "outputs": [
        {
          "internalType": "uint256",
          "name": "",
          "type": "uint256"
        }
      ],
      "payable": false,
      "stateMutability": "view",
      "type": "function"
    },
    {
      "constant": true,
      "inputs": [],
      "name": "numProjects",
      "outputs": [
        {
          "internalType": "uint256",
          "name": "",
          "type": "uint256"
        }
      ],
      "payable": false,
      "stateMutability": "view",
      "type": "function"
    },
    {
      "constant": true,
      "inputs": [
        {
          "internalType": "uint256",
          "name": "",
          "type": "uint256"
        }
      ],
      "name": "projects",
      "outputs": [
        {
          "internalType": "address",
          "name": "companyAddress",
          "type": "address"
        },
        {
          "internalType": "string",
          "name": "projectName",
          "type": "string"
        },
        {
          "internalType": "string",
          "name": "desc",
          "type": "string"
        },
        {
          "internalType": "uint256",
          "name": "cctAmount",
          "type": "uint256"
        },
        {
          "internalType": "uint256",
          "name": "cctSold",
          "type": "uint256"
        },
        {
          "internalType": "uint256",
          "name": "cctListed",
          "type": "uint256"
        },
        {
          "internalType": "enum Company.ProjectState",
          "name": "state",
          "type": "uint8"
        },
        {
          "internalType": "uint256",
          "name": "daystillCompletion",
          "type": "uint256"
        }
      ],
      "payable": false,
      "stateMutability": "view",
      "type": "function"
    },
    {
      "constant": true,
      "inputs": [
        {
          "internalType": "uint256",
          "name": "projectId",
          "type": "uint256"
        },
        {
          "internalType": "address",
          "name": "companyAddress",
          "type": "address"
        }
      ],
      "name": "projectCompanyOwner",
      "outputs": [
        {
          "internalType": "bool",
          "name": "",
          "type": "bool"
        }
      ],
      "payable": false,
      "stateMutability": "view",
      "type": "function"
    },
    {
      "constant": false,
      "inputs": [
        {
          "internalType": "address",
          "name": "companyAddress",
          "type": "address"
        },
        {
          "internalType": "string",
          "name": "companyName",
          "type": "string"
        }
      ],
      "name": "addCompany",
      "outputs": [
        {
          "internalType": "uint256",
          "name": "",
          "type": "uint256"
        }
      ],
      "payable": false,
      "stateMutability": "nonpayable",
      "type": "function"
    },
    {
      "constant": false,
      "inputs": [
        {
          "internalType": "string",
          "name": "pName",
          "type": "string"
        },
        {
          "internalType": "string",
          "name": "desc",
          "type": "string"
        },
        {
          "internalType": "uint256",
          "name": "daystillCompletion",
          "type": "uint256"
        },
        {
          "internalType": "uint256",
          "name": "carbonDioxideSaved",
          "type": "uint256"
        }
      ],
      "name": "addProject",
      "outputs": [],
      "payable": true,
      "stateMutability": "payable",
      "type": "function"
    },
    {
      "constant": true,
      "inputs": [
        {
          "internalType": "address",
          "name": "companyAddress",
          "type": "address"
        }
      ],
      "name": "getCompanyEthBalance",
      "outputs": [
        {
          "internalType": "uint256",
          "name": "",
          "type": "uint256"
        }
      ],
      "payable": false,
      "stateMutability": "view",
      "type": "function"
    },
    {
      "constant": false,
      "inputs": [
        {
          "internalType": "address",
          "name": "companyAddress",
          "type": "address"
        },
        {
          "internalType": "uint256",
          "name": "projectId",
          "type": "uint256"
        },
        {
          "internalType": "uint256",
          "name": "credits",
          "type": "uint256"
        }
      ],
      "name": "stakeCredits",
      "outputs": [],
      "payable": false,
      "stateMutability": "nonpayable",
      "type": "function"
    },
    {
      "constant": true,
      "inputs": [
        {
          "internalType": "address",
          "name": "companyAddress",
          "type": "address"
        },
        {
          "internalType": "uint256",
          "name": "projectId",
          "type": "uint256"
        }
      ],
      "name": "getStakedCredits",
      "outputs": [
        {
          "internalType": "uint256",
          "name": "",
          "type": "uint256"
        }
      ],
      "payable": false,
      "stateMutability": "view",
      "type": "function"
    },
    {
      "constant": true,
      "inputs": [
        {
          "internalType": "address",
          "name": "companyAddress",
          "type": "address"
        },
        {
          "internalType": "uint256",
          "name": "projectId",
          "type": "uint256"
        },
        {
          "internalType": "uint256",
          "name": "cctAmt",
          "type": "uint256"
        }
      ],
      "name": "checkSufficientCCT",
      "outputs": [
        {
          "internalType": "bool",
          "name": "",
          "type": "bool"
        }
      ],
      "payable": false,
      "stateMutability": "view",
      "type": "function"
    },
    {
      "constant": false,
      "inputs": [
        {
          "internalType": "address",
          "name": "companyAddress",
          "type": "address"
        },
        {
          "internalType": "uint256",
          "name": "projectId",
          "type": "uint256"
        },
        {
          "internalType": "uint256",
          "name": "cctAmt",
          "type": "uint256"
        }
      ],
      "name": "sellCCT",
      "outputs": [],
      "payable": false,
      "stateMutability": "nonpayable",
      "type": "function"
    },
    {
      "constant": true,
      "inputs": [
        {
          "internalType": "address",
          "name": "companyAddress",
          "type": "address"
        },
        {
          "internalType": "uint256",
          "name": "projectId",
          "type": "uint256"
        },
        {
          "internalType": "uint256",
          "name": "cctAmt",
          "type": "uint256"
        }
      ],
      "name": "checkCCTListed",
      "outputs": [
        {
          "internalType": "bool",
          "name": "",
          "type": "bool"
        }
      ],
      "payable": false,
      "stateMutability": "view",
      "type": "function"
    },
    {
      "constant": false,
      "inputs": [
        {
          "internalType": "address",
          "name": "companyAddress",
          "type": "address"
        },
        {
          "internalType": "uint256",
          "name": "projectId",
          "type": "uint256"
        },
        {
          "internalType": "uint256",
          "name": "cctAmt",
          "type": "uint256"
        }
      ],
      "name": "listCCT",
      "outputs": [],
      "payable": false,
      "stateMutability": "nonpayable",
      "type": "function"
    },
    {
      "constant": true,
      "inputs": [
        {
          "internalType": "uint256",
          "name": "projectId",
          "type": "uint256"
        }
      ],
      "name": "getProjectcctAmount",
      "outputs": [
        {
          "internalType": "uint256",
          "name": "",
          "type": "uint256"
        }
      ],
      "payable": false,
      "stateMutability": "view",
      "type": "function"
    },
    {
      "constant": false,
      "inputs": [
        {
          "internalType": "uint256",
          "name": "projectId",
          "type": "uint256"
        },
        {
          "internalType": "uint256",
          "name": "cctAmt",
          "type": "uint256"
        }
      ],
      "name": "setProjectcctAmount",
      "outputs": [],
      "payable": false,
      "stateMutability": "nonpayable",
      "type": "function"
    },
    {
      "constant": true,
      "inputs": [
        {
          "internalType": "uint256",
          "name": "projectId",
          "type": "uint256"
        }
      ],
      "name": "getCCTSold",
      "outputs": [
        {
          "internalType": "uint256",
          "name": "",
          "type": "uint256"
        }
      ],
      "payable": false,
      "stateMutability": "view",
      "type": "function"
    },
    {
      "constant": true,
      "inputs": [
        {
          "internalType": "uint256",
          "name": "projectId",
          "type": "uint256"
        }
      ],
      "name": "getProjectState",
      "outputs": [
        {
          "internalType": "enum Company.ProjectState",
          "name": "",
          "type": "uint8"
        }
      ],
      "payable": false,
      "stateMutability": "view",
      "type": "function"
    },
    {
      "constant": false,
      "inputs": [
        {
          "internalType": "uint256",
          "name": "projectId",
          "type": "uint256"
        }
      ],
      "name": "setProjectStateComplete",
      "outputs": [],
      "payable": false,
      "stateMutability": "nonpayable",
      "type": "function"
    },
    {
      "constant": true,
      "inputs": [
        {
          "internalType": "address",
          "name": "companyAddress",
          "type": "address"
        }
      ],
      "name": "getCompanyName",
      "outputs": [
        {
          "internalType": "string",
          "name": "",
          "type": "string"
        }
      ],
      "payable": false,
      "stateMutability": "view",
      "type": "function"
    }
  ],
  "bytecode": "0x6080604052336000806101000a81548173ffffffffffffffffffffffffffffffffffffffff021916908373ffffffffffffffffffffffffffffffffffffffff1602179055506000600155600060025534801561005a57600080fd5b5061246d8061006a6000396000f3fe60806040526004361061011f5760003560e01c80639841b68d116100a0578063e015571411610064578063e0155714146108ec578063e8241cc914610949578063ed234e20146109bc578063f49d31d314610ab8578063f955a41314610b075761011f565b80639841b68d146106d85780639abe2f3f1461073d5780639b6db7ee14610782578063a4ef7031146107e7578063dd8c9c9f146108b15761011f565b806353cd2582116100e757806353cd2582146105315780635a067baa146105a057806361854d20146105cb578063874fdf2d14610630578063883dc9751461065b5761011f565b8063107046bd146101245780631d2dfb74146102a85780632160036a1461030d57806322876376146104735780632f58ded7146104e2575b600080fd5b34801561013057600080fd5b5061015d6004803603602081101561014757600080fd5b8101908080359060200190929190505050610b84565b604051808973ffffffffffffffffffffffffffffffffffffffff1673ffffffffffffffffffffffffffffffffffffffff16815260200180602001806020018881526020018781526020018681526020018560018111156101b957fe5b60ff16815260200184815260200183810383528a818151815260200191508051906020019080838360005b838110156101ff5780820151818401526020810190506101e4565b50505050905090810190601f16801561022c5780820380516001836020036101000a031916815260200191505b50838103825289818151815260200191508051906020019080838360005b8381101561026557808201518184015260208101905061024a565b50505050905090810190601f1680156102925780820380516001836020036101000a031916815260200191505b509a505050505050505050505060405180910390f35b3480156102b457600080fd5b506102f7600480360360208110156102cb57600080fd5b81019080803573ffffffffffffffffffffffffffffffffffffffff169060200190929190505050610d29565b6040518082815260200191505060405180910390f35b6104716004803603608081101561032357600080fd5b810190808035906020019064010000000081111561034057600080fd5b82018360208201111561035257600080fd5b8035906020019184600183028401116401000000008311171561037457600080fd5b91908080601f016020809104026020016040519081016040528093929190818152602001838380828437600081840152601f19601f820116905080830192505050505050509192919290803590602001906401000000008111156103d757600080fd5b8201836020820111156103e957600080fd5b8035906020019184600183028401116401000000008311171561040b57600080fd5b91908080601f016020809104026020016040519081016040528093929190818152602001838380828437600081840152601f19601f8201169050808301925050505050505091929192908035906020019092919080359060200190929190505050610e4e565b005b34801561047f57600080fd5b506104cc6004803603604081101561049657600080fd5b81019080803573ffffffffffffffffffffffffffffffffffffffff16906020019092919080359060200190929190505050611189565b6040518082815260200191505060405180910390f35b3480156104ee57600080fd5b5061051b6004803603602081101561050557600080fd5b81019080803590602001909291905050506111b7565b6040518082815260200191505060405180910390f35b34801561053d57600080fd5b5061058a6004803603604081101561055457600080fd5b81019080803573ffffffffffffffffffffffffffffffffffffffff1690602001909291908035906020019092919050505061124e565b6040518082815260200191505060405180910390f35b3480156105ac57600080fd5b506105b5611328565b6040518082815260200191505060405180910390f35b3480156105d757600080fd5b5061062e600480360360608110156105ee57600080fd5b81019080803573ffffffffffffffffffffffffffffffffffffffff169060200190929190803590602001909291908035906020019092919050505061132e565b005b34801561063c57600080fd5b506106456114a7565b6040518082815260200191505060405180910390f35b34801561066757600080fd5b506106be6004803603606081101561067e57600080fd5b81019080803573ffffffffffffffffffffffffffffffffffffffff16906020019092919080359060200190929190803590602001909291905050506114ad565b604051808215151515815260200191505060405180910390f35b3480156106e457600080fd5b5061073b600480360360608110156106fb57600080fd5b81019080803573ffffffffffffffffffffffffffffffffffffffff1690602001909291908035906020019092919080359060200190929190505050611559565b005b34801561074957600080fd5b506107806004803603604081101561076057600080fd5b8101908080359060200190929190803590602001909291905050506115e1565b005b34801561078e57600080fd5b506107e5600480360360608110156107a557600080fd5b81019080803573ffffffffffffffffffffffffffffffffffffffff1690602001909291908035906020019092919080359060200190929190505050611677565b005b3480156107f357600080fd5b506108366004803603602081101561080a57600080fd5b81019080803573ffffffffffffffffffffffffffffffffffffffff1690602001909291905050506116ff565b6040518080602001828103825283818151815260200191508051906020019080838360005b8381101561087657808201518184015260208101905061085b565b50505050905090810190601f1680156108a35780820380516001836020036101000a031916815260200191505b509250505060405180910390f35b3480156108bd57600080fd5b506108ea600480360360208110156108d457600080fd5b81019080803590602001909291905050506118e8565b005b3480156108f857600080fd5b506109256004803603602081101561090f57600080fd5b810190808035906020019092919050505061199a565b6040518082600181111561093557fe5b60ff16815260200191505060405180910390f35b34801561095557600080fd5b506109a26004803603604081101561096c57600080fd5b8101908080359060200190929190803573ffffffffffffffffffffffffffffffffffffffff169060200190929190505050611a3e565b604051808215151515815260200191505060405180910390f35b3480156109c857600080fd5b50610aa2600480360360408110156109df57600080fd5b81019080803573ffffffffffffffffffffffffffffffffffffffff16906020019092919080359060200190640100000000811115610a1c57600080fd5b820183602082011115610a2e57600080fd5b80359060200191846001830284011164010000000083111715610a5057600080fd5b91908080601f016020809104026020016040519081016040528093929190818152602001838380828437600081840152601f19601f820116905080830192505050505050509192919290505050611b21565b6040518082815260200191505060405180910390f35b348015610ac457600080fd5b50610af160048036036020811015610adb57600080fd5b8101908080359060200190929190505050611ed9565b6040518082815260200191505060405180910390f35b348015610b1357600080fd5b50610b6a60048036036060811015610b2a57600080fd5b81019080803573ffffffffffffffffffffffffffffffffffffffff1690602001909291908035906020019092919080359060200190929190505050612177565b604051808215151515815260200191505060405180910390f35b60056020528060005260406000206000915090508060000160009054906101000a900473ffffffffffffffffffffffffffffffffffffffff1690806001018054600181600116156101000203166002900480601f016020809104026020016040519081016040528092919081815260200182805460018160011615610100020316600290048015610c565780601f10610c2b57610100808354040283529160200191610c56565b820191906000526020600020905b815481529060010190602001808311610c3957829003601f168201915b505050505090806002018054600181600116156101000203166002900480601f016020809104026020016040519081016040528092919081815260200182805460018160011615610100020316600290048015610cf45780601f10610cc957610100808354040283529160200191610cf4565b820191906000526020600020905b815481529060010190602001808311610cd757829003601f168201915b5050505050908060030154908060040154908060050154908060060160009054906101000a900460ff16908060070154905088565b60008073ffffffffffffffffffffffffffffffffffffffff16600360008473ffffffffffffffffffffffffffffffffffffffff1673ffffffffffffffffffffffffffffffffffffffff16815260200190815260200160002060000160009054906101000a900473ffffffffffffffffffffffffffffffffffffffff1673ffffffffffffffffffffffffffffffffffffffff161415610e2f576040517f08c379a00000000000000000000000000000000000000000000000000000000081526004018080602001828103825260168152602001807f436f6d70616e7920646f6573206e6f742065786973740000000000000000000081525060200191505060405180910390fd5b8173ffffffffffffffffffffffffffffffffffffffff16319050919050565b6001811015610ea8576040517f08c379a00000000000000000000000000000000000000000000000000000000081526004018080602001828103825260378152602001806123666037913960400191505060405180910390fd5b6000600360003373ffffffffffffffffffffffffffffffffffffffff1673ffffffffffffffffffffffffffffffffffffffff1681526020019081526020016000209050600060018381610ef757fe5b049050610f02612223565b60006001600081548092919060010191905055905087826020018190525033826000019073ffffffffffffffffffffffffffffffffffffffff16908173ffffffffffffffffffffffffffffffffffffffff168152505086826040018190525060008260c001906001811115610f7357fe5b90816001811115610f8057fe5b81525050858260e001818152505060008260a0018181525050828260600181815250506000826080018181525050816005600083815260200190815260200160002060008201518160000160006101000a81548173ffffffffffffffffffffffffffffffffffffffff021916908373ffffffffffffffffffffffffffffffffffffffff1602179055506020820151816001019080519060200190611025929190612289565b506040820151816002019080519060200190611042929190612289565b50606082015181600301556080820151816004015560a0820151816005015560c08201518160060160006101000a81548160ff0219169083600181111561108557fe5b021790555060e082015181600701559050508360020160008154809291906001019190505550600660003373ffffffffffffffffffffffffffffffffffffffff1673ffffffffffffffffffffffffffffffffffffffff1681526020019081526020016000208190806001815401808255809150509060018203906000526020600020016000909192909190915055507f68fa61752bdcbd546c2f36da7bf0ae4183db23be0f1b4194329377ab8519b1413382604051808373ffffffffffffffffffffffffffffffffffffffff1673ffffffffffffffffffffffffffffffffffffffff1681526020018281526020019250505060405180910390a15050505050505050565b600660205281600052604060002081815481106111a257fe5b90600052602060002001600091509150505481565b60006001548210611230576040517f08c379a00000000000000000000000000000000000000000000000000000000081526004018080602001828103825260128152602001807f496e76616c69642070726f6a656374204944000000000000000000000000000081525060200191505060405180910390fd5b60056000838152602001908152602001600020600401549050919050565b600061125a8284611a3e565b6112cc576040517f08c379a000000000000000000000000000000000000000000000000000000000815260040180806020018281038252601c8152602001807f50726f6a656374206e6f74206f776e656420627920636f6d70616e790000000081525060200191505060405180910390fd5b6005600083815260200190815260200160002060080160008473ffffffffffffffffffffffffffffffffffffffff1673ffffffffffffffffffffffffffffffffffffffff16815260200190815260200160002054905092915050565b60015481565b8273ffffffffffffffffffffffffffffffffffffffff166005600084815260200190815260200160002060000160009054906101000a900473ffffffffffffffffffffffffffffffffffffffff1673ffffffffffffffffffffffffffffffffffffffff16146113e8576040517f08c379a00000000000000000000000000000000000000000000000000000000081526004018080602001828103825260248152602001806124156024913960400191505060405180910390fd5b60008111611441576040517f08c379a00000000000000000000000000000000000000000000000000000000081526004018080602001828103825260278152602001806123ee6027913960400191505060405180910390fd5b806005600084815260200190815260200160002060080160008573ffffffffffffffffffffffffffffffffffffffff1673ffffffffffffffffffffffffffffffffffffffff16815260200190815260200160002060008282540192505081905550505050565b60025481565b60006114b98385611a3e565b61150e576040517f08c379a00000000000000000000000000000000000000000000000000000000081526004018080602001828103825260248152602001806123ca6024913960400191505060405180910390fd5b600560008481526020019081526020016000206003015482600560008681526020019081526020016000206005015401111561154d5760009050611552565b600190505b9392505050565b6115638284611a3e565b6115b8576040517f08c379a00000000000000000000000000000000000000000000000000000000081526004018080602001828103825260248152602001806123ca6024913960400191505060405180910390fd5b806005600084815260200190815260200160002060040160008282540192505081905550505050565b6001548210611658576040517f08c379a00000000000000000000000000000000000000000000000000000000081526004018080602001828103825260128152602001807f496e76616c69642070726f6a656374204944000000000000000000000000000081525060200191505060405180910390fd5b8060056000848152602001908152602001600020600301819055505050565b6116818284611a3e565b6116d6576040517f08c379a00000000000000000000000000000000000000000000000000000000081526004018080602001828103825260248152602001806123ca6024913960400191505060405180910390fd5b806005600084815260200190815260200160002060050160008282540192505081905550505050565b6060600073ffffffffffffffffffffffffffffffffffffffff16600360008473ffffffffffffffffffffffffffffffffffffffff1673ffffffffffffffffffffffffffffffffffffffff16815260200190815260200160002060000160009054906101000a900473ffffffffffffffffffffffffffffffffffffffff1673ffffffffffffffffffffffffffffffffffffffff161415611806576040517f08c379a00000000000000000000000000000000000000000000000000000000081526004018080602001828103825260168152602001807f436f6d70616e7920646f6573206e6f742065786973740000000000000000000081525060200191505060405180910390fd5b600360008373ffffffffffffffffffffffffffffffffffffffff1673ffffffffffffffffffffffffffffffffffffffff1681526020019081526020016000206001018054600181600116156101000203166002900480601f0160208091040260200160405190810160405280929190818152602001828054600181600116156101000203166002900480156118dc5780601f106118b1576101008083540402835291602001916118dc565b820191906000526020600020905b8154815290600101906020018083116118bf57829003601f168201915b50505050509050919050565b600154811061195f576040517f08c379a00000000000000000000000000000000000000000000000000000000081526004018080602001828103825260128152602001807f496e76616c69642070726f6a656374204944000000000000000000000000000081525060200191505060405180910390fd5b60016005600083815260200190815260200160002060060160006101000a81548160ff0219169083600181111561199257fe5b021790555050565b60006001548210611a13576040517f08c379a00000000000000000000000000000000000000000000000000000000081526004018080602001828103825260128152602001807f496e76616c69642070726f6a656374204944000000000000000000000000000081525060200191505060405180910390fd5b6005600083815260200190815260200160002060060160009054906101000a900460ff169050919050565b60006060600660008473ffffffffffffffffffffffffffffffffffffffff1673ffffffffffffffffffffffffffffffffffffffff168152602001908152602001600020805480602002602001604051908101604052809291908181526020018280548015611acb57602002820191906000526020600020905b815481526020019060010190808311611ab7575b5050505050905060008090505b8151811015611b145784828281518110611aee57fe5b60200260200101511415611b0757600192505050611b1b565b8080600101915050611ad8565b5060009150505b92915050565b60003373ffffffffffffffffffffffffffffffffffffffff166000809054906101000a900473ffffffffffffffffffffffffffffffffffffffff1673ffffffffffffffffffffffffffffffffffffffff1614611bc8576040517f08c379a000000000000000000000000000000000000000000000000000000000815260040180806020018281038252602d81526020018061239d602d913960400191505060405180910390fd5b600073ffffffffffffffffffffffffffffffffffffffff16600360003373ffffffffffffffffffffffffffffffffffffffff1673ffffffffffffffffffffffffffffffffffffffff16815260200190815260200160002060000160009054906101000a900473ffffffffffffffffffffffffffffffffffffffff1673ffffffffffffffffffffffffffffffffffffffff1614611ccc576040517f08c379a00000000000000000000000000000000000000000000000000000000081526004018080602001828103825260158152602001807f436f6d70616e7920616c7265616479206164646564000000000000000000000081525060200191505060405180910390fd5b611cd4612309565b82816020018190525083816000019073ffffffffffffffffffffffffffffffffffffffff16908173ffffffffffffffffffffffffffffffffffffffff1681525050600081604001818152505080600360008673ffffffffffffffffffffffffffffffffffffffff1673ffffffffffffffffffffffffffffffffffffffff16815260200190815260200160002060008201518160000160006101000a81548173ffffffffffffffffffffffffffffffffffffffff021916908373ffffffffffffffffffffffffffffffffffffffff1602179055506020820151816001019080519060200190611dc3929190612289565b50604082015181600201559050507f1072a9b8a7ccf3921d43d7ba49d97c33e8201e33eb954ed3063939efa57d4f7584604051808273ffffffffffffffffffffffffffffffffffffffff1673ffffffffffffffffffffffffffffffffffffffff16815260200191505060405180910390a1600060026000815480929190600101919050559050816004600083815260200190815260200160002060008201518160000160006101000a81548173ffffffffffffffffffffffffffffffffffffffff021916908373ffffffffffffffffffffffffffffffffffffffff1602179055506020820151816001019080519060200190611ec0929190612289565b5060408201518160020155905050809250505092915050565b60006001548210611f52576040517f08c379a00000000000000000000000000000000000000000000000000000000081526004018080602001828103825260128152602001807f496e76616c69642070726f6a656374204944000000000000000000000000000081525060200191505060405180910390fd5b611f5a612223565b60056000848152602001908152602001600020604051806101000160405290816000820160009054906101000a900473ffffffffffffffffffffffffffffffffffffffff1673ffffffffffffffffffffffffffffffffffffffff1673ffffffffffffffffffffffffffffffffffffffff168152602001600182018054600181600116156101000203166002900480601f0160208091040260200160405190810160405280929190818152602001828054600181600116156101000203166002900480156120685780601f1061203d57610100808354040283529160200191612068565b820191906000526020600020905b81548152906001019060200180831161204b57829003601f168201915b50505050508152602001600282018054600181600116156101000203166002900480601f01602080910402602001604051908101604052809291908181526020018280546001816001161561010002031660029004801561210a5780601f106120df5761010080835404028352916020019161210a565b820191906000526020600020905b8154815290600101906020018083116120ed57829003601f168201915b505050505081526020016003820154815260200160048201548152602001600582015481526020016006820160009054906101000a900460ff16600181111561214f57fe5b600181111561215a57fe5b815260200160078201548152505090508060600151915050919050565b60006121838385611a3e565b6121d8576040517f08c379a00000000000000000000000000000000000000000000000000000000081526004018080602001828103825260248152602001806123ca6024913960400191505060405180910390fd5b6005600084815260200190815260200160002060030154826005600086815260200190815260200160002060040154011115612217576000905061221c565b600190505b9392505050565b604051806101000160405280600073ffffffffffffffffffffffffffffffffffffffff16815260200160608152602001606081526020016000815260200160008152602001600081526020016000600181111561227c57fe5b8152602001600081525090565b828054600181600116156101000203166002900490600052602060002090601f016020900481019282601f106122ca57805160ff19168380011785556122f8565b828001600101855582156122f8579182015b828111156122f75782518255916020019190600101906122dc565b5b5090506123059190612340565b5090565b6040518060600160405280600073ffffffffffffffffffffffffffffffffffffffff16815260200160608152602001600081525090565b61236291905b8082111561235e576000816000905550600101612346565b5090565b9056fe50726f6a656374206d7573742062652070726564696374656420746f206174206c656173742073617665203120746f6e206f6620434f324f6e6c7920636f6e7472616374206f776e65722063616e206578656375746520746869732066756e6374696f6e50726f6a656374206e6f7420646f6e652062792070726f766964656420636f6d70616e794d757374207374616b65206120706f73697469766520616d6f756e74206f6620637265646974734f6e6c792070726f6a656374206f776e65722063616e207374616b652063726564697473a265627a7a72315820e31e3a89404ccec9c6591e7c51455056a514951ba318a4e286ccfe9163fd13b464736f6c63430005110032",
  "source": "pragma solidity ^0.5.0;\n\n/**\n * @title Company\n * @dev This contract represents a company and its projects in a carbon market.\n */\ncontract Company {\n    // Enums and structs\n    enum ProjectState {\n        ongoing,\n        completed\n    } //add a modifier that updates state depending on time in carbon market\n\n    struct company {\n        address company_address;\n        string companyName;\n        uint256 projectCount;\n    }\n\n    struct Project {\n        address companyAddress;\n        string projectName;\n        string desc;\n        uint256 cctAmount; //cct amount predicted / given for project\n        uint256 cctSold; //cct sold so far, updated after buyer buys\n        uint256 cctListed; //cct listed for sale\n        ProjectState state;\n        uint256 daystillCompletion;\n        mapping(address => uint256) stakedCredits; // Mapping of staked credits for each company\n    }\n\n    // Events\n    event companyAdded(address companyAddress);\n    event projectAdded(address companyAddress, uint256 projectId);\n\n    // State variables\n    address _owner = msg.sender;\n    uint256 public numProjects = 0; // number of projects\n    uint256 public numCompanies = 0; // number of companies\n    mapping(address => company) companies; // mapping of company address to company\n    mapping(uint256 => company) companiesId; // mapping of company id to company\n    mapping(uint256 => Project) public projects; // mapping of project id to project\n    mapping(address => uint256[]) public companyProjects; // mapping of company address to list of projects\n\n    /**\n     * @dev Modifier that allows only the contract owner to execute the function.\n     */\n    modifier contractOwnerOnly() {\n        require(\n            _owner == msg.sender,\n            \"Only contract owner can execute this function\"\n        );\n        _;\n    }\n\n    /**\n     * @dev Checks if a project is owned by a specific company.\n     * @param projectId The ID of the project.\n     * @param companyAddress The address of the company.\n     * @return A boolean indicating whether the project is owned by the company.\n     */\n    function projectCompanyOwner(\n        uint256 projectId,\n        address companyAddress\n    ) public view returns (bool) {\n        uint256[] memory projectsByCompany = companyProjects[companyAddress];\n        for (uint256 i = 0; i < projectsByCompany.length; i++) {\n            if (projectsByCompany[i] == projectId) {\n                // project done by company\n                return true; // project done by company\n            }\n        }\n        return false; // project not done by company\n    }\n\n    /**\n     * @dev Adds a new company to the carbon market.\n     * @param companyAddress The address of the company.\n     * @param companyName The name of the company.\n     * @return The ID of the newly added company.\n     */\n    function addCompany(\n        address companyAddress,\n        string memory companyName\n    ) public contractOwnerOnly returns (uint256) {\n        require(\n            companies[msg.sender].company_address == address(0),\n            \"Company already added\"\n        );\n        company memory newCompany;\n        newCompany.companyName = companyName;\n        newCompany.company_address = companyAddress;\n        newCompany.projectCount = 0;\n        companies[companyAddress] = newCompany; // add company to list of companies, company address is the key, company is the value\n        emit companyAdded(companyAddress);\n        /*Not sure if we need these eventually in situations where dk company address*/\n        uint256 newCompanyId = numCompanies++;\n        companiesId[newCompanyId] = newCompany; //company id is the key, company is the value\n        return newCompanyId; //return new companyId\n    }\n\n    /**\n     * @dev Adds a new project to the carbon market.\n     * @param pName The name of the project.\n     * @param desc The description of the project.\n     * @param daystillCompletion The number of days until project completion.\n     */\n    function addProject(\n        string memory pName,\n        string memory desc,\n        uint256 daystillCompletion,\n        uint256 carbonDioxideSaved\n    ) public payable {\n        require(\n            carbonDioxideSaved >= 1,\n            \"Project must be predicted to at least save 1 ton of CO2\"\n        );\n        // if company has not been listed, cant add company as only owner can add company\n        company storage thisCompany = companies[msg.sender];\n\n        uint256 intTonCO2Saved = carbonDioxideSaved / 1; // int amt of cct\n\n        //create project\n        Project memory newProject;\n        uint256 thisProjectId = numProjects++;\n        newProject.projectName = pName;\n        newProject.companyAddress = msg.sender;\n        newProject.desc = desc;\n        newProject.state = ProjectState.ongoing;\n        newProject.daystillCompletion = daystillCompletion;\n        newProject.cctListed = 0;\n        newProject.cctAmount = intTonCO2Saved; // industry standard, 1 ton of co2 = 1 cct.\n        newProject.cctSold = 0;\n        projects[thisProjectId] = newProject;\n\n        //edit company\n        thisCompany.projectCount++;\n        companyProjects[msg.sender].push(thisProjectId);\n        emit projectAdded(msg.sender, thisProjectId);\n    }\n\n    /**\n     * @dev Returns the ETH balance of a company.\n     * @param companyAddress The address of the company.\n     * @return The ETH balance of the company.\n     */\n    function getCompanyEthBalance(\n        address companyAddress\n    ) public view returns (uint256) {\n        require(\n            companies[companyAddress].company_address != address(0),\n            \"Company does not exist\"\n        );\n        return companyAddress.balance; // get eth balance of the company (msg.sender)\n    }\n\n    /**\n     * @dev Stakes credits for a project.\n     * @param companyAddress The address of the company.\n     * @param projectId The ID of the project.\n     * @param credits The amount of credits to stake.\n     */\n    function stakeCredits(\n        address companyAddress,\n        uint256 projectId,\n        uint256 credits\n    ) public {\n        require(\n            projects[projectId].companyAddress == companyAddress,\n            \"Only project owner can stake credits\"\n        );\n        require(credits > 0, \"Must stake a positive amount of credits\");\n        projects[projectId].stakedCredits[companyAddress] += credits;\n    }\n\n    /**\n     * @dev Returns the staked credits for a project.\n     * @param companyAddress The address of the company.\n     * @param projectId The ID of the project.\n     * @return The amount of staked credits for the project.\n     */\n    function getStakedCredits(\n        address companyAddress,\n        uint256 projectId\n    ) public view returns (uint256) {\n        require(\n            projectCompanyOwner(projectId, companyAddress),\n            \"Project not owned by company\"\n        );\n        return projects[projectId].stakedCredits[companyAddress];\n    }\n\n    /**\n     * @dev Checks if there are sufficient CCT (Carbon Credit Tokens) for a project.\n     * @param companyAddress The address of the company.\n     * @param projectId The ID of the project.\n     * @param cctAmt The amount of CCT to check.\n     * @return A boolean indicating whether there are sufficient CCT for the project.\n     */\n    function checkSufficientCCT(\n        address companyAddress,\n        uint256 projectId,\n        uint256 cctAmt\n    ) public view returns (bool) {\n        require(\n            projectCompanyOwner(projectId, companyAddress),\n            \"Project not done by provided company\"\n        );\n        if (\n            projects[projectId].cctSold + cctAmt > projects[projectId].cctAmount\n        ) {\n            //when buy, cctSold increases\n            return false;\n        }\n        return true;\n    }\n\n    /**\n     * @dev Sells CCT (Carbon Credit Tokens) for a project.\n     * @param companyAddress The address of the company.\n     * @param projectId The ID of the project.\n     * @param cctAmt The amount of CCT to sell.\n     */\n    function sellCCT(\n        address companyAddress,\n        uint256 projectId,\n        uint256 cctAmt\n    ) public {\n        require(\n            projectCompanyOwner(projectId, companyAddress),\n            \"Project not done by provided company\"\n        );\n        projects[projectId].cctSold += cctAmt; //cctSold increases when buyer buys\n        // projects[projectId].cctAmount -= cctAmt; //the cct amount for the project decreases when buyer buys\n    }\n\n    /**\n     * @dev Checks if there are sufficient CCT (Carbon Credit Tokens) listed for sale for a project.\n     * @param companyAddress The address of the company.\n     * @param projectId The ID of the project.\n     * @param cctAmt The amount of CCT to check.\n     * @return A boolean indicating whether there are sufficient CCT listed for sale for the project.\n     */\n    function checkCCTListed(\n        address companyAddress,\n        uint256 projectId,\n        uint256 cctAmt\n    ) public view returns (bool) {\n        require(\n            projectCompanyOwner(projectId, companyAddress),\n            \"Project not done by provided company\"\n        );\n        if (\n            projects[projectId].cctListed + cctAmt >\n            projects[projectId].cctAmount\n        ) {\n            //when sell, cctListed increases\n            return false;\n        }\n        return true;\n    }\n\n    /**\n     * @dev Lists CCT (Carbon Credit Tokens) for sale for a project.\n     * @param companyAddress The address of the company.\n     * @param projectId The ID of the project.\n     * @param cctAmt The amount of CCT to list for sale.\n     */\n    function listCCT(\n        address companyAddress,\n        uint256 projectId,\n        uint256 cctAmt\n    ) public {\n        require(\n            projectCompanyOwner(projectId, companyAddress),\n            \"Project not done by provided company\"\n        );\n        projects[projectId].cctListed += cctAmt; //cctListed increases when listed\n        // projects[projectId].cctAmount += cctAmt; //cctAmount equals cctListed when listed\n    }\n\n    /**\n     * @dev Returns the details of a specific project.\n     * @param projectId The ID of the project.\n     * @return The details of the project.\n     */\n    function getProjectcctAmount(\n        uint256 projectId\n    ) public view returns (uint256) {\n        require(projectId < numProjects, \"Invalid project ID\");\n        Project memory project = projects[projectId];\n        return project.cctAmount;\n    }\n\n    /**\n     * @dev Sets the amount of CCT for a project.\n     * @param projectId The ID of the project.\n     * @param cctAmt The amount of CCT to set.\n     */\n    function setProjectcctAmount(uint256 projectId, uint256 cctAmt) public {\n        require(projectId < numProjects, \"Invalid project ID\");\n        projects[projectId].cctAmount = cctAmt;\n    }\n\n    /**\n     * @dev Returns the amount of CCT sold for a project.\n     * @param projectId The ID of the project.\n     * @return The amount of CCT sold for the project.\n     */\n    function getCCTSold(uint256 projectId) public view returns (uint256) {\n        require(projectId < numProjects, \"Invalid project ID\");\n        return projects[projectId].cctSold;\n    }\n\n    /**\n     * @dev Returns the state of a specific project.\n     * @param projectId The ID of the project.\n     * @return The state of the project.\n     */\n    function getProjectState(\n        uint256 projectId\n    ) public view returns (ProjectState) {\n        require(projectId < numProjects, \"Invalid project ID\");\n        return projects[projectId].state;\n    }\n\n    /**\n     * @dev Sets a project state to complete.\n     * @param projectId The ID of the project.\n     */\n    function setProjectStateComplete(uint256 projectId) public {\n        require(projectId < numProjects, \"Invalid project ID\");\n        projects[projectId].state = ProjectState.completed;\n    }\n\n    /**\n     * @dev Returns the name of a specific company.\n     * @param companyAddress The address of the company.\n     * @return The name of the company.\n     */\n    function getCompanyName(\n        address companyAddress\n    ) public view returns (string memory) {\n        require(\n            companies[companyAddress].company_address != address(0),\n            \"Company does not exist\"\n        );\n        return companies[companyAddress].companyName;\n    }\n}\n",
  "sourcePath": "/Users/mavischeng/Desktop/IS4302/is4302/contracts/Company.sol",
  "compiler": {
    "name": "solc",
    "version": "0.5.17+commit.d19bba13.Emscripten.clang"
  },
  "schemaVersion": "3.4.16",
  "updatedAt": "2024-04-20T15:17:22.752Z",
  "devdoc": {
    "details": "This contract represents a company and its projects in a carbon market.",
    "methods": {
      "addCompany(address,string)": {
        "details": "Adds a new company to the carbon market.",
        "params": {
          "companyAddress": "The address of the company.",
          "companyName": "The name of the company."
        },
        "return": "The ID of the newly added company."
      },
      "addProject(string,string,uint256,uint256)": {
        "details": "Adds a new project to the carbon market.",
        "params": {
          "daystillCompletion": "The number of days until project completion.",
          "desc": "The description of the project.",
          "pName": "The name of the project."
        }
      },
      "checkCCTListed(address,uint256,uint256)": {
        "details": "Checks if there are sufficient CCT (Carbon Credit Tokens) listed for sale for a project.",
        "params": {
          "cctAmt": "The amount of CCT to check.",
          "companyAddress": "The address of the company.",
          "projectId": "The ID of the project."
        },
        "return": "A boolean indicating whether there are sufficient CCT listed for sale for the project."
      },
      "checkSufficientCCT(address,uint256,uint256)": {
        "details": "Checks if there are sufficient CCT (Carbon Credit Tokens) for a project.",
        "params": {
          "cctAmt": "The amount of CCT to check.",
          "companyAddress": "The address of the company.",
          "projectId": "The ID of the project."
        },
        "return": "A boolean indicating whether there are sufficient CCT for the project."
      },
      "getCCTSold(uint256)": {
        "details": "Returns the amount of CCT sold for a project.",
        "params": {
          "projectId": "The ID of the project."
        },
        "return": "The amount of CCT sold for the project."
      },
      "getCompanyEthBalance(address)": {
        "details": "Returns the ETH balance of a company.",
        "params": {
          "companyAddress": "The address of the company."
        },
        "return": "The ETH balance of the company."
      },
      "getCompanyName(address)": {
        "details": "Returns the name of a specific company.",
        "params": {
          "companyAddress": "The address of the company."
        },
        "return": "The name of the company."
      },
      "getProjectState(uint256)": {
        "details": "Returns the state of a specific project.",
        "params": {
          "projectId": "The ID of the project."
        },
        "return": "The state of the project."
      },
      "getProjectcctAmount(uint256)": {
        "details": "Returns the details of a specific project.",
        "params": {
          "projectId": "The ID of the project."
        },
        "return": "The details of the project."
      },
      "getStakedCredits(address,uint256)": {
        "details": "Returns the staked credits for a project.",
        "params": {
          "companyAddress": "The address of the company.",
          "projectId": "The ID of the project."
        },
        "return": "The amount of staked credits for the project."
      },
      "listCCT(address,uint256,uint256)": {
        "details": "Lists CCT (Carbon Credit Tokens) for sale for a project.",
        "params": {
          "cctAmt": "The amount of CCT to list for sale.",
          "companyAddress": "The address of the company.",
          "projectId": "The ID of the project."
        }
      },
      "projectCompanyOwner(uint256,address)": {
        "details": "Checks if a project is owned by a specific company.",
        "params": {
          "companyAddress": "The address of the company.",
          "projectId": "The ID of the project."
        },
        "return": "A boolean indicating whether the project is owned by the company."
      },
      "sellCCT(address,uint256,uint256)": {
        "details": "Sells CCT (Carbon Credit Tokens) for a project.",
        "params": {
          "cctAmt": "The amount of CCT to sell.",
          "companyAddress": "The address of the company.",
          "projectId": "The ID of the project."
        }
      },
      "setProjectStateComplete(uint256)": {
        "details": "Sets a project state to complete.",
        "params": {
          "projectId": "The ID of the project."
        }
      },
      "setProjectcctAmount(uint256,uint256)": {
        "details": "Sets the amount of CCT for a project.",
        "params": {
          "cctAmt": "The amount of CCT to set.",
          "projectId": "The ID of the project."
        }
      },
      "stakeCredits(address,uint256,uint256)": {
        "details": "Stakes credits for a project.",
        "params": {
          "companyAddress": "The address of the company.",
          "credits": "The amount of credits to stake.",
          "projectId": "The ID of the project."
        }
      }
    },
    "title": "Company"
  },
  "userdoc": {
    "methods": {}
  }
}