{
  "contractName": "Company",
  "abi": [
    {
      "anonymous": false,
      "inputs": [
        {
          "indexed": false,
          "internalType": "address",
          "name": "companyAddress",
          "type": "address"
        }
      ],
      "name": "companyAdded",
      "type": "event"
    },
    {
      "anonymous": false,
      "inputs": [
        {
          "indexed": false,
          "internalType": "address",
          "name": "companyAddress",
          "type": "address"
        },
        {
          "indexed": false,
          "internalType": "uint256",
          "name": "projectId",
          "type": "uint256"
        }
      ],
      "name": "projectAdded",
      "type": "event"
    },
    {
      "constant": true,
      "inputs": [
        {
          "internalType": "address",
          "name": "",
          "type": "address"
        },
        {
          "internalType": "uint256",
          "name": "",
          "type": "uint256"
        }
      ],
      "name": "companyProjects",
      "outputs": [
        {
          "internalType": "uint256",
          "name": "",
          "type": "uint256"
        }
      ],
      "payable": false,
      "stateMutability": "view",
      "type": "function"
    },
    {
      "constant": true,
      "inputs": [],
      "name": "numCompanies",
      "outputs": [
        {
          "internalType": "uint256",
          "name": "",
          "type": "uint256"
        }
      ],
      "payable": false,
      "stateMutability": "view",
      "type": "function"
    },
    {
      "constant": true,
      "inputs": [],
      "name": "numProjects",
      "outputs": [
        {
          "internalType": "uint256",
          "name": "",
          "type": "uint256"
        }
      ],
      "payable": false,
      "stateMutability": "view",
      "type": "function"
    },
    {
      "constant": true,
      "inputs": [
        {
          "internalType": "uint256",
          "name": "",
          "type": "uint256"
        }
      ],
      "name": "projects",
      "outputs": [
        {
          "internalType": "address",
          "name": "companyAddress",
          "type": "address"
        },
        {
          "internalType": "string",
          "name": "projectName",
          "type": "string"
        },
        {
          "internalType": "string",
          "name": "desc",
          "type": "string"
        },
        {
          "internalType": "uint256",
          "name": "cctAmount",
          "type": "uint256"
        },
        {
          "internalType": "uint256",
          "name": "cctSold",
          "type": "uint256"
        },
        {
          "internalType": "uint256",
          "name": "cctListed",
          "type": "uint256"
        },
        {
          "internalType": "enum Company.ProjectState",
          "name": "state",
          "type": "uint8"
        },
        {
          "internalType": "uint256",
          "name": "daystillCompletion",
          "type": "uint256"
        }
      ],
      "payable": false,
      "stateMutability": "view",
      "type": "function"
    },
    {
      "constant": true,
      "inputs": [
        {
          "internalType": "uint256",
          "name": "projectId",
          "type": "uint256"
        },
        {
          "internalType": "address",
          "name": "companyAddress",
          "type": "address"
        }
      ],
      "name": "projectCompanyOwner",
      "outputs": [
        {
          "internalType": "bool",
          "name": "",
          "type": "bool"
        }
      ],
      "payable": false,
      "stateMutability": "view",
      "type": "function"
    },
    {
      "constant": false,
      "inputs": [
        {
          "internalType": "address",
          "name": "companyAddress",
          "type": "address"
        },
        {
          "internalType": "string",
          "name": "companyName",
          "type": "string"
        }
      ],
      "name": "addCompany",
      "outputs": [
        {
          "internalType": "uint256",
          "name": "",
          "type": "uint256"
        }
      ],
      "payable": false,
      "stateMutability": "nonpayable",
      "type": "function"
    },
    {
      "constant": false,
      "inputs": [
        {
          "internalType": "string",
          "name": "pName",
          "type": "string"
        },
        {
          "internalType": "string",
          "name": "desc",
          "type": "string"
        },
        {
          "internalType": "uint256",
          "name": "daystillCompletion",
          "type": "uint256"
        }
      ],
      "name": "addProject",
      "outputs": [],
      "payable": true,
      "stateMutability": "payable",
      "type": "function"
    },
    {
      "constant": true,
      "inputs": [
        {
          "internalType": "address",
          "name": "companyAddress",
          "type": "address"
        }
      ],
      "name": "getCompanyEthBalance",
      "outputs": [
        {
          "internalType": "uint256",
          "name": "",
          "type": "uint256"
        }
      ],
      "payable": false,
      "stateMutability": "view",
      "type": "function"
    },
    {
      "constant": false,
      "inputs": [
        {
          "internalType": "address",
          "name": "companyAddress",
          "type": "address"
        },
        {
          "internalType": "uint256",
          "name": "projectId",
          "type": "uint256"
        },
        {
          "internalType": "uint256",
          "name": "credits",
          "type": "uint256"
        }
      ],
      "name": "stakeCredits",
      "outputs": [],
      "payable": false,
      "stateMutability": "nonpayable",
      "type": "function"
    },
    {
      "constant": true,
      "inputs": [
        {
          "internalType": "address",
          "name": "companyAddress",
          "type": "address"
        },
        {
          "internalType": "uint256",
          "name": "projectId",
          "type": "uint256"
        }
      ],
      "name": "getStakedCredits",
      "outputs": [
        {
          "internalType": "uint256",
          "name": "",
          "type": "uint256"
        }
      ],
      "payable": false,
      "stateMutability": "view",
      "type": "function"
    },
    {
      "constant": true,
      "inputs": [
        {
          "internalType": "address",
          "name": "companyAddress",
          "type": "address"
        },
        {
          "internalType": "uint256",
          "name": "projectId",
          "type": "uint256"
        },
        {
          "internalType": "uint256",
          "name": "cctAmt",
          "type": "uint256"
        }
      ],
      "name": "checkSufficientCCT",
      "outputs": [
        {
          "internalType": "bool",
          "name": "",
          "type": "bool"
        }
      ],
      "payable": false,
      "stateMutability": "view",
      "type": "function"
    },
    {
      "constant": false,
      "inputs": [
        {
          "internalType": "address",
          "name": "companyAddress",
          "type": "address"
        },
        {
          "internalType": "uint256",
          "name": "projectId",
          "type": "uint256"
        },
        {
          "internalType": "uint256",
          "name": "cctAmt",
          "type": "uint256"
        }
      ],
      "name": "sellCCT",
      "outputs": [],
      "payable": false,
      "stateMutability": "nonpayable",
      "type": "function"
    },
    {
      "constant": true,
      "inputs": [
        {
          "internalType": "address",
          "name": "companyAddress",
          "type": "address"
        },
        {
          "internalType": "uint256",
          "name": "projectId",
          "type": "uint256"
        },
        {
          "internalType": "uint256",
          "name": "cctAmt",
          "type": "uint256"
        }
      ],
      "name": "checkCCTListed",
      "outputs": [
        {
          "internalType": "bool",
          "name": "",
          "type": "bool"
        }
      ],
      "payable": false,
      "stateMutability": "view",
      "type": "function"
    },
    {
      "constant": false,
      "inputs": [
        {
          "internalType": "address",
          "name": "companyAddress",
          "type": "address"
        },
        {
          "internalType": "uint256",
          "name": "projectId",
          "type": "uint256"
        },
        {
          "internalType": "uint256",
          "name": "cctAmt",
          "type": "uint256"
        }
      ],
      "name": "listCCT",
      "outputs": [],
      "payable": false,
      "stateMutability": "nonpayable",
      "type": "function"
    },
    {
      "constant": true,
      "inputs": [
        {
          "internalType": "uint256",
          "name": "projectId",
          "type": "uint256"
        }
      ],
      "name": "getProjectcctAmount",
      "outputs": [
        {
          "internalType": "uint256",
          "name": "",
          "type": "uint256"
        }
      ],
      "payable": false,
      "stateMutability": "view",
      "type": "function"
    },
    {
      "constant": false,
      "inputs": [
        {
          "internalType": "uint256",
          "name": "projectId",
          "type": "uint256"
        },
        {
          "internalType": "uint256",
          "name": "cctAmt",
          "type": "uint256"
        }
      ],
      "name": "setProjectcctAmount",
      "outputs": [],
      "payable": false,
      "stateMutability": "nonpayable",
      "type": "function"
    },
    {
      "constant": true,
      "inputs": [
        {
          "internalType": "uint256",
          "name": "projectId",
          "type": "uint256"
        }
      ],
      "name": "getCCTSold",
      "outputs": [
        {
          "internalType": "uint256",
          "name": "",
          "type": "uint256"
        }
      ],
      "payable": false,
      "stateMutability": "view",
      "type": "function"
    },
    {
      "constant": true,
      "inputs": [
        {
          "internalType": "uint256",
          "name": "projectId",
          "type": "uint256"
        }
      ],
      "name": "getProjectState",
      "outputs": [
        {
          "internalType": "enum Company.ProjectState",
          "name": "",
          "type": "uint8"
        }
      ],
      "payable": false,
      "stateMutability": "view",
      "type": "function"
    },
    {
      "constant": false,
      "inputs": [
        {
          "internalType": "uint256",
          "name": "projectId",
          "type": "uint256"
        }
      ],
      "name": "setProjectStateComplete",
      "outputs": [],
      "payable": false,
      "stateMutability": "nonpayable",
      "type": "function"
    }
  ],
  "bytecode": "0x6080604052336000806101000a81548173ffffffffffffffffffffffffffffffffffffffff021916908373ffffffffffffffffffffffffffffffffffffffff1602179055506000600155600060025534801561005a57600080fd5b506121418061006a6000396000f3fe6080604052600436106101145760003560e01c8063883dc975116100a0578063e015571411610064578063e01557141461080d578063e8241cc91461086a578063ed234e20146108dd578063f49d31d3146109d9578063f955a41314610a2857610114565b8063883dc975146106465780639841b68d146106c35780639abe2f3f146107285780639b6db7ee1461076d578063dd8c9c9f146107d257610114565b806353cd2582116100e757806353cd2582146103c05780635a067baa1461042f5780635fd4f7581461045a57806361854d20146105b6578063874fdf2d1461061b57610114565b8063107046bd146101195780631d2dfb741461029d57806322876376146103025780632f58ded714610371575b600080fd5b34801561012557600080fd5b506101526004803603602081101561013c57600080fd5b8101908080359060200190929190505050610aa5565b604051808973ffffffffffffffffffffffffffffffffffffffff1673ffffffffffffffffffffffffffffffffffffffff16815260200180602001806020018881526020018781526020018681526020018560018111156101ae57fe5b60ff16815260200184815260200183810383528a818151815260200191508051906020019080838360005b838110156101f45780820151818401526020810190506101d9565b50505050905090810190601f1680156102215780820380516001836020036101000a031916815260200191505b50838103825289818151815260200191508051906020019080838360005b8381101561025a57808201518184015260208101905061023f565b50505050905090810190601f1680156102875780820380516001836020036101000a031916815260200191505b509a505050505050505050505060405180910390f35b3480156102a957600080fd5b506102ec600480360360208110156102c057600080fd5b81019080803573ffffffffffffffffffffffffffffffffffffffff169060200190929190505050610c4a565b6040518082815260200191505060405180910390f35b34801561030e57600080fd5b5061035b6004803603604081101561032557600080fd5b81019080803573ffffffffffffffffffffffffffffffffffffffff16906020019092919080359060200190929190505050610d6f565b6040518082815260200191505060405180910390f35b34801561037d57600080fd5b506103aa6004803603602081101561039457600080fd5b8101908080359060200190929190505050610d9d565b6040518082815260200191505060405180910390f35b3480156103cc57600080fd5b50610419600480360360408110156103e357600080fd5b81019080803573ffffffffffffffffffffffffffffffffffffffff16906020019092919080359060200190929190505050610e34565b6040518082815260200191505060405180910390f35b34801561043b57600080fd5b50610444610f0e565b6040518082815260200191505060405180910390f35b6105b46004803603606081101561047057600080fd5b810190808035906020019064010000000081111561048d57600080fd5b82018360208201111561049f57600080fd5b803590602001918460018302840111640100000000831117156104c157600080fd5b91908080601f016020809104026020016040519081016040528093929190818152602001838380828437600081840152601f19601f8201169050808301925050505050505091929192908035906020019064010000000081111561052457600080fd5b82018360208201111561053657600080fd5b8035906020019184600183028401116401000000008311171561055857600080fd5b91908080601f016020809104026020016040519081016040528093929190818152602001838380828437600081840152601f19601f82011690508083019250505050505050919291929080359060200190929190505050610f14565b005b3480156105c257600080fd5b50610619600480360360608110156105d957600080fd5b81019080803573ffffffffffffffffffffffffffffffffffffffff16906020019092919080359060200190929190803590602001909291905050506111da565b005b34801561062757600080fd5b50610630611353565b6040518082815260200191505060405180910390f35b34801561065257600080fd5b506106a96004803603606081101561066957600080fd5b81019080803573ffffffffffffffffffffffffffffffffffffffff1690602001909291908035906020019092919080359060200190929190505050611359565b604051808215151515815260200191505060405180910390f35b3480156106cf57600080fd5b50610726600480360360608110156106e657600080fd5b81019080803573ffffffffffffffffffffffffffffffffffffffff1690602001909291908035906020019092919080359060200190929190505050611405565b005b34801561073457600080fd5b5061076b6004803603604081101561074b57600080fd5b8101908080359060200190929190803590602001909291905050506114b1565b005b34801561077957600080fd5b506107d06004803603606081101561079057600080fd5b81019080803573ffffffffffffffffffffffffffffffffffffffff1690602001909291908035906020019092919080359060200190929190505050611547565b005b3480156107de57600080fd5b5061080b600480360360208110156107f557600080fd5b81019080803590602001909291905050506115f3565b005b34801561081957600080fd5b506108466004803603602081101561083057600080fd5b81019080803590602001909291905050506116a5565b6040518082600181111561085657fe5b60ff16815260200191505060405180910390f35b34801561087657600080fd5b506108c36004803603604081101561088d57600080fd5b8101908080359060200190929190803573ffffffffffffffffffffffffffffffffffffffff169060200190929190505050611749565b604051808215151515815260200191505060405180910390f35b3480156108e957600080fd5b506109c36004803603604081101561090057600080fd5b81019080803573ffffffffffffffffffffffffffffffffffffffff1690602001909291908035906020019064010000000081111561093d57600080fd5b82018360208201111561094f57600080fd5b8035906020019184600183028401116401000000008311171561097157600080fd5b91908080601f016020809104026020016040519081016040528093929190818152602001838380828437600081840152601f19601f82011690508083019250505050505050919291929050505061182c565b6040518082815260200191505060405180910390f35b3480156109e557600080fd5b50610a12600480360360208110156109fc57600080fd5b8101908080359060200190929190505050611be4565b6040518082815260200191505060405180910390f35b348015610a3457600080fd5b50610a8b60048036036060811015610a4b57600080fd5b81019080803573ffffffffffffffffffffffffffffffffffffffff1690602001909291908035906020019092919080359060200190929190505050611e82565b604051808215151515815260200191505060405180910390f35b60056020528060005260406000206000915090508060000160009054906101000a900473ffffffffffffffffffffffffffffffffffffffff1690806001018054600181600116156101000203166002900480601f016020809104026020016040519081016040528092919081815260200182805460018160011615610100020316600290048015610b775780601f10610b4c57610100808354040283529160200191610b77565b820191906000526020600020905b815481529060010190602001808311610b5a57829003601f168201915b505050505090806002018054600181600116156101000203166002900480601f016020809104026020016040519081016040528092919081815260200182805460018160011615610100020316600290048015610c155780601f10610bea57610100808354040283529160200191610c15565b820191906000526020600020905b815481529060010190602001808311610bf857829003601f168201915b5050505050908060030154908060040154908060050154908060060160009054906101000a900460ff16908060070154905088565b60008073ffffffffffffffffffffffffffffffffffffffff16600360008473ffffffffffffffffffffffffffffffffffffffff1673ffffffffffffffffffffffffffffffffffffffff16815260200190815260200160002060000160009054906101000a900473ffffffffffffffffffffffffffffffffffffffff1673ffffffffffffffffffffffffffffffffffffffff161415610d50576040517f08c379a00000000000000000000000000000000000000000000000000000000081526004018080602001828103825260168152602001807f436f6d70616e7920646f6573206e6f742065786973740000000000000000000081525060200191505060405180910390fd5b8173ffffffffffffffffffffffffffffffffffffffff16319050919050565b60066020528160005260406000208181548110610d8857fe5b90600052602060002001600091509150505481565b60006001548210610e16576040517f08c379a00000000000000000000000000000000000000000000000000000000081526004018080602001828103825260128152602001807f496e76616c69642070726f6a656374204944000000000000000000000000000081525060200191505060405180910390fd5b60056000838152602001908152602001600020600401549050919050565b6000610e408284611749565b610eb2576040517f08c379a000000000000000000000000000000000000000000000000000000000815260040180806020018281038252601c8152602001807f50726f6a656374206e6f74206f776e656420627920636f6d70616e790000000081525060200191505060405180910390fd5b6005600083815260200190815260200160002060080160008473ffffffffffffffffffffffffffffffffffffffff1673ffffffffffffffffffffffffffffffffffffffff16815260200190815260200160002054905092915050565b60015481565b6000600360003373ffffffffffffffffffffffffffffffffffffffff1673ffffffffffffffffffffffffffffffffffffffff1681526020019081526020016000209050610f5f611f2e565b60006001600081548092919060010191905055905085826020018190525033826000019073ffffffffffffffffffffffffffffffffffffffff16908173ffffffffffffffffffffffffffffffffffffffff168152505084826040018190525060008260c001906001811115610fd057fe5b90816001811115610fdd57fe5b81525050838260e001818152505060008260a00181815250506000826080018181525050816005600083815260200190815260200160002060008201518160000160006101000a81548173ffffffffffffffffffffffffffffffffffffffff021916908373ffffffffffffffffffffffffffffffffffffffff1602179055506020820151816001019080519060200190611078929190611f94565b506040820151816002019080519060200190611095929190611f94565b50606082015181600301556080820151816004015560a0820151816005015560c08201518160060160006101000a81548160ff021916908360018111156110d857fe5b021790555060e082015181600701559050508260020160008154809291906001019190505550600660003373ffffffffffffffffffffffffffffffffffffffff1673ffffffffffffffffffffffffffffffffffffffff1681526020019081526020016000208190806001815401808255809150509060018203906000526020600020016000909192909190915055507f68fa61752bdcbd546c2f36da7bf0ae4183db23be0f1b4194329377ab8519b1413382604051808373ffffffffffffffffffffffffffffffffffffffff1673ffffffffffffffffffffffffffffffffffffffff1681526020018281526020019250505060405180910390a1505050505050565b8273ffffffffffffffffffffffffffffffffffffffff166005600084815260200190815260200160002060000160009054906101000a900473ffffffffffffffffffffffffffffffffffffffff1673ffffffffffffffffffffffffffffffffffffffff1614611294576040517f08c379a00000000000000000000000000000000000000000000000000000000081526004018080602001828103825260248152602001806120e96024913960400191505060405180910390fd5b600081116112ed576040517f08c379a00000000000000000000000000000000000000000000000000000000081526004018080602001828103825260278152602001806120c26027913960400191505060405180910390fd5b806005600084815260200190815260200160002060080160008573ffffffffffffffffffffffffffffffffffffffff1673ffffffffffffffffffffffffffffffffffffffff16815260200190815260200160002060008282540192505081905550505050565b60025481565b60006113658385611749565b6113ba576040517f08c379a000000000000000000000000000000000000000000000000000000000815260040180806020018281038252602481526020018061209e6024913960400191505060405180910390fd5b60056000848152602001908152602001600020600301548260056000868152602001908152602001600020600501540111156113f957600090506113fe565b600190505b9392505050565b61140f8284611749565b611464576040517f08c379a000000000000000000000000000000000000000000000000000000000815260040180806020018281038252602481526020018061209e6024913960400191505060405180910390fd5b806005600084815260200190815260200160002060040160008282540192505081905550806005600084815260200190815260200160002060030160008282540392505081905550505050565b6001548210611528576040517f08c379a00000000000000000000000000000000000000000000000000000000081526004018080602001828103825260128152602001807f496e76616c69642070726f6a656374204944000000000000000000000000000081525060200191505060405180910390fd5b8060056000848152602001908152602001600020600301819055505050565b6115518284611749565b6115a6576040517f08c379a000000000000000000000000000000000000000000000000000000000815260040180806020018281038252602481526020018061209e6024913960400191505060405180910390fd5b806005600084815260200190815260200160002060050160008282540192505081905550806005600084815260200190815260200160002060030160008282540192505081905550505050565b600154811061166a576040517f08c379a00000000000000000000000000000000000000000000000000000000081526004018080602001828103825260128152602001807f496e76616c69642070726f6a656374204944000000000000000000000000000081525060200191505060405180910390fd5b60016005600083815260200190815260200160002060060160006101000a81548160ff0219169083600181111561169d57fe5b021790555050565b6000600154821061171e576040517f08c379a00000000000000000000000000000000000000000000000000000000081526004018080602001828103825260128152602001807f496e76616c69642070726f6a656374204944000000000000000000000000000081525060200191505060405180910390fd5b6005600083815260200190815260200160002060060160009054906101000a900460ff169050919050565b60006060600660008473ffffffffffffffffffffffffffffffffffffffff1673ffffffffffffffffffffffffffffffffffffffff1681526020019081526020016000208054806020026020016040519081016040528092919081815260200182805480156117d657602002820191906000526020600020905b8154815260200190600101908083116117c2575b5050505050905060008090505b815181101561181f57848282815181106117f957fe5b6020026020010151141561181257600192505050611826565b80806001019150506117e3565b5060009150505b92915050565b60003373ffffffffffffffffffffffffffffffffffffffff166000809054906101000a900473ffffffffffffffffffffffffffffffffffffffff1673ffffffffffffffffffffffffffffffffffffffff16146118d3576040517f08c379a000000000000000000000000000000000000000000000000000000000815260040180806020018281038252602d815260200180612071602d913960400191505060405180910390fd5b600073ffffffffffffffffffffffffffffffffffffffff16600360003373ffffffffffffffffffffffffffffffffffffffff1673ffffffffffffffffffffffffffffffffffffffff16815260200190815260200160002060000160009054906101000a900473ffffffffffffffffffffffffffffffffffffffff1673ffffffffffffffffffffffffffffffffffffffff16146119d7576040517f08c379a00000000000000000000000000000000000000000000000000000000081526004018080602001828103825260158152602001807f436f6d70616e7920616c7265616479206164646564000000000000000000000081525060200191505060405180910390fd5b6119df612014565b82816020018190525083816000019073ffffffffffffffffffffffffffffffffffffffff16908173ffffffffffffffffffffffffffffffffffffffff1681525050600081604001818152505080600360008673ffffffffffffffffffffffffffffffffffffffff1673ffffffffffffffffffffffffffffffffffffffff16815260200190815260200160002060008201518160000160006101000a81548173ffffffffffffffffffffffffffffffffffffffff021916908373ffffffffffffffffffffffffffffffffffffffff1602179055506020820151816001019080519060200190611ace929190611f94565b50604082015181600201559050507f1072a9b8a7ccf3921d43d7ba49d97c33e8201e33eb954ed3063939efa57d4f7584604051808273ffffffffffffffffffffffffffffffffffffffff1673ffffffffffffffffffffffffffffffffffffffff16815260200191505060405180910390a1600060026000815480929190600101919050559050816004600083815260200190815260200160002060008201518160000160006101000a81548173ffffffffffffffffffffffffffffffffffffffff021916908373ffffffffffffffffffffffffffffffffffffffff1602179055506020820151816001019080519060200190611bcb929190611f94565b5060408201518160020155905050809250505092915050565b60006001548210611c5d576040517f08c379a00000000000000000000000000000000000000000000000000000000081526004018080602001828103825260128152602001807f496e76616c69642070726f6a656374204944000000000000000000000000000081525060200191505060405180910390fd5b611c65611f2e565b60056000848152602001908152602001600020604051806101000160405290816000820160009054906101000a900473ffffffffffffffffffffffffffffffffffffffff1673ffffffffffffffffffffffffffffffffffffffff1673ffffffffffffffffffffffffffffffffffffffff168152602001600182018054600181600116156101000203166002900480601f016020809104026020016040519081016040528092919081815260200182805460018160011615610100020316600290048015611d735780601f10611d4857610100808354040283529160200191611d73565b820191906000526020600020905b815481529060010190602001808311611d5657829003601f168201915b50505050508152602001600282018054600181600116156101000203166002900480601f016020809104026020016040519081016040528092919081815260200182805460018160011615610100020316600290048015611e155780601f10611dea57610100808354040283529160200191611e15565b820191906000526020600020905b815481529060010190602001808311611df857829003601f168201915b505050505081526020016003820154815260200160048201548152602001600582015481526020016006820160009054906101000a900460ff166001811115611e5a57fe5b6001811115611e6557fe5b815260200160078201548152505090508060600151915050919050565b6000611e8e8385611749565b611ee3576040517f08c379a000000000000000000000000000000000000000000000000000000000815260040180806020018281038252602481526020018061209e6024913960400191505060405180910390fd5b6005600084815260200190815260200160002060030154826005600086815260200190815260200160002060040154011115611f225760009050611f27565b600190505b9392505050565b604051806101000160405280600073ffffffffffffffffffffffffffffffffffffffff168152602001606081526020016060815260200160008152602001600081526020016000815260200160006001811115611f8757fe5b8152602001600081525090565b828054600181600116156101000203166002900490600052602060002090601f016020900481019282601f10611fd557805160ff1916838001178555612003565b82800160010185558215612003579182015b82811115612002578251825591602001919060010190611fe7565b5b509050612010919061204b565b5090565b6040518060600160405280600073ffffffffffffffffffffffffffffffffffffffff16815260200160608152602001600081525090565b61206d91905b80821115612069576000816000905550600101612051565b5090565b9056fe4f6e6c7920636f6e7472616374206f776e65722063616e206578656375746520746869732066756e6374696f6e50726f6a656374206e6f7420646f6e652062792070726f766964656420636f6d70616e794d757374207374616b65206120706f73697469766520616d6f756e74206f6620637265646974734f6e6c792070726f6a656374206f776e65722063616e207374616b652063726564697473a265627a7a723158206a438064be59c4b2371ced47e72950f46a766209798615e75a3ad5913936f07f64736f6c63430005110032",
  "source": "pragma solidity ^0.5.0;\r\n\r\n/**\r\n * @title Company\r\n * @dev This contract represents a company and its projects in a carbon market.\r\n */\r\ncontract Company {\r\n\r\n    // Enums and structs\r\n    enum ProjectState { ongoing, completed } //add a modifier that updates state depending on time in carbon market \r\n\r\n    struct company {\r\n        address company_address;\r\n        string companyName;\r\n        uint256 projectCount;\r\n    }\r\n    \r\n    struct Project {\r\n        address companyAddress;\r\n        string projectName;\r\n        string desc;\r\n        uint256 cctAmount; //cct amount for project, after sell/buy\r\n        uint256 cctSold;   //cct sold so far, updated after buyer buys\r\n        uint256 cctListed; //cct listed for sale\r\n        ProjectState state; \r\n        uint256 daystillCompletion;\r\n        mapping(address => uint256) stakedCredits; // Mapping of staked credits for each company\r\n    }\r\n\r\n\r\n    // Events \r\n    event companyAdded(address companyAddress);\r\n    event projectAdded(address companyAddress, uint256 projectId);\r\n\r\n\r\n    // State variables\r\n    address _owner = msg.sender;\r\n    uint256 public numProjects = 0; // number of projects\r\n    uint256 public numCompanies = 0; // number of companies\r\n    mapping(address => company) companies; // mapping of company address to company\r\n    mapping(uint256 => company) companiesId; // mapping of company id to company\r\n    mapping(uint256 => Project) public projects; // mapping of project id to project\r\n    mapping(address => uint256[]) public companyProjects; // mapping of company address to list of projects\r\n\r\n\r\n    /**\r\n     * @dev Modifier that allows only the contract owner to execute the function.\r\n     */\r\n    modifier contractOwnerOnly() {\r\n        require(_owner == msg.sender, \"Only contract owner can execute this function\");\r\n        _;\r\n    }\r\n\r\n    /**\r\n     * @dev Checks if a project is owned by a specific company.\r\n     * @param projectId The ID of the project.\r\n     * @param companyAddress The address of the company.\r\n     * @return A boolean indicating whether the project is owned by the company.\r\n     */\r\n    function projectCompanyOwner(uint256 projectId, address companyAddress) public view returns (bool) {\r\n        uint256[] memory projectsByCompany = companyProjects[companyAddress];\r\n        for (uint256 i = 0; i < projectsByCompany.length; i++) {\r\n            if (projectsByCompany[i] == projectId) { // project done by company\r\n                return true; // project done by company\r\n            }\r\n        }\r\n        return false; // project not done by company\r\n    }\r\n\r\n\r\n    /**\r\n     * @dev Adds a new company to the carbon market.\r\n     * @param companyAddress The address of the company.\r\n     * @param companyName The name of the company.\r\n     * @return The ID of the newly added company.\r\n     */\r\n    function addCompany(address companyAddress, string memory companyName) public contractOwnerOnly() returns(uint256) {\r\n        require(companies[msg.sender].company_address == address(0), \"Company already added\");\r\n        company memory newCompany; \r\n        newCompany.companyName = companyName;\r\n        newCompany.company_address = companyAddress;\r\n        newCompany.projectCount = 0;\r\n        companies[companyAddress] = newCompany; // add company to list of companies, company address is the key, company is the value\r\n        emit companyAdded(companyAddress); \r\n        /*Not sure if we need these eventually in situations where dk company address*/\r\n        uint256 newCompanyId = numCompanies++;\r\n        companiesId[newCompanyId] = newCompany; //company id is the key, company is the value\r\n        return newCompanyId;   //return new companyId\r\n    }\r\n\r\n\r\n    /**\r\n     * @dev Adds a new project to the carbon market.\r\n     * @param pName The name of the project.\r\n     * @param desc The description of the project.\r\n     * @param daystillCompletion The number of days until project completion.\r\n     */\r\n    function addProject(string memory pName, string memory desc, uint256 daystillCompletion) public payable {\r\n        // if company has not been listed, cant add company as only owner can add company\r\n        company storage thisCompany = companies[msg.sender];\r\n\r\n        //create project\r\n        Project memory newProject;\r\n        uint256 thisProjectId = numProjects++;\r\n        newProject.projectName = pName;\r\n        newProject.companyAddress = msg.sender;\r\n        newProject.desc = desc;\r\n        newProject.state = ProjectState.ongoing;\r\n        newProject.daystillCompletion = daystillCompletion;\r\n        newProject.cctListed = 0;\r\n        newProject.cctSold = 0;\r\n        projects[thisProjectId] = newProject;\r\n\r\n        //edit company\r\n        thisCompany.projectCount++;\r\n        companyProjects[msg.sender].push(thisProjectId);\r\n        emit projectAdded(msg.sender, thisProjectId);\r\n    }\r\n\r\n\r\n    /**\r\n     * @dev Returns the ETH balance of a company.\r\n     * @param companyAddress The address of the company.\r\n     * @return The ETH balance of the company.\r\n     */\r\n    function getCompanyEthBalance(address companyAddress) public view returns (uint256) {\r\n        require(companies[companyAddress].company_address != address(0), \"Company does not exist\");\r\n        return companyAddress.balance; // get eth balance of the company (msg.sender)\r\n    }\r\n\r\n\r\n    /**\r\n     * @dev Stakes credits for a project.\r\n     * @param companyAddress The address of the company.\r\n     * @param projectId The ID of the project.\r\n     * @param credits The amount of credits to stake.\r\n     */\r\n    function stakeCredits(address companyAddress, uint256 projectId, uint256 credits) public {\r\n        require(projects[projectId].companyAddress == companyAddress, \"Only project owner can stake credits\");\r\n        require(credits > 0, \"Must stake a positive amount of credits\");\r\n        projects[projectId].stakedCredits[companyAddress] += credits;\r\n    }\r\n\r\n\r\n    /**\r\n     * @dev Returns the staked credits for a project.\r\n     * @param companyAddress The address of the company.\r\n     * @param projectId The ID of the project.\r\n     * @return The amount of staked credits for the project.\r\n     */\r\n    function getStakedCredits(address companyAddress, uint256 projectId) public view returns (uint256) {\r\n        require(projectCompanyOwner(projectId, companyAddress), \"Project not owned by company\");\r\n        return projects[projectId].stakedCredits[companyAddress];\r\n    }\r\n\r\n\r\n    /**\r\n     * @dev Checks if there are sufficient CCT (Carbon Credit Tokens) for a project.\r\n     * @param companyAddress The address of the company.\r\n     * @param projectId The ID of the project.\r\n     * @param cctAmt The amount of CCT to check.\r\n     * @return A boolean indicating whether there are sufficient CCT for the project.\r\n     */\r\n    function checkSufficientCCT(address companyAddress, uint256 projectId, uint256 cctAmt) public view returns (bool) {\r\n        require(projectCompanyOwner(projectId, companyAddress), \"Project not done by provided company\");\r\n        if (projects[projectId].cctSold + cctAmt > projects[projectId].cctAmount) { //when buy, cctSold increases\r\n            return false;\r\n        }\r\n        return true;\r\n    }\r\n\r\n\r\n    /**\r\n     * @dev Sells CCT (Carbon Credit Tokens) for a project.\r\n     * @param companyAddress The address of the company.\r\n     * @param projectId The ID of the project.\r\n     * @param cctAmt The amount of CCT to sell.\r\n     */\r\n    function sellCCT(address companyAddress, uint256 projectId, uint256 cctAmt) public {\r\n        require(projectCompanyOwner(projectId, companyAddress), \"Project not done by provided company\");\r\n        projects[projectId].cctSold += cctAmt; \r\n        projects[projectId].cctAmount -= cctAmt; //the cct amount for the project decreases when buyer buys\r\n    }\r\n\r\n\r\n    /**\r\n     * @dev Checks if there are sufficient CCT (Carbon Credit Tokens) listed for sale for a project.\r\n     * @param companyAddress The address of the company.\r\n     * @param projectId The ID of the project.\r\n     * @param cctAmt The amount of CCT to check.\r\n     * @return A boolean indicating whether there are sufficient CCT listed for sale for the project.\r\n     */\r\n    function checkCCTListed(address companyAddress, uint256 projectId, uint256 cctAmt) public view returns (bool) {\r\n        require(projectCompanyOwner(projectId, companyAddress), \"Project not done by provided company\");\r\n        if (projects[projectId].cctListed + cctAmt > projects[projectId].cctAmount) { //when sell, cctListed increases\r\n            return false;\r\n        } \r\n        return true;\r\n    }\r\n\r\n\r\n    /**\r\n     * @dev Lists CCT (Carbon Credit Tokens) for sale for a project.\r\n     * @param companyAddress The address of the company.\r\n     * @param projectId The ID of the project.\r\n     * @param cctAmt The amount of CCT to list for sale.\r\n     */\r\n    function listCCT(address companyAddress, uint256 projectId, uint256 cctAmt) public {\r\n        require(projectCompanyOwner(projectId, companyAddress), \"Project not done by provided company\");\r\n        projects[projectId].cctListed += cctAmt;  //cctListed increases when listed\r\n        projects[projectId].cctAmount += cctAmt; //cctAmount equals cctListed when listed   \r\n    }\r\n\r\n\r\n    /**\r\n     * @dev Returns the details of a specific project.\r\n     * @param projectId The ID of the project.\r\n     * @return The details of the project.\r\n     */\r\n    function getProjectcctAmount(uint256 projectId) public view returns (uint256) {\r\n        require(projectId < numProjects, \"Invalid project ID\");\r\n        Project memory project = projects[projectId];\r\n        return project.cctAmount;\r\n    }\r\n\r\n    \r\n    /**\r\n     * @dev Sets the amount of CCT for a project.\r\n     * @param projectId The ID of the project.\r\n     * @param cctAmt The amount of CCT to set.\r\n     */\r\n    function setProjectcctAmount(uint256 projectId, uint256 cctAmt) public {\r\n        require(projectId < numProjects, \"Invalid project ID\");\r\n        projects[projectId].cctAmount = cctAmt;\r\n    }\r\n\r\n    /**\r\n     * @dev Returns the amount of CCT sold for a project.\r\n     * @param projectId The ID of the project.\r\n     * @return The amount of CCT sold for the project.\r\n     */\r\n    function getCCTSold(uint256 projectId) public view returns (uint256) {\r\n        require(projectId < numProjects, \"Invalid project ID\");\r\n        return projects[projectId].cctSold;\r\n    }\r\n\r\n    /**\r\n     * @dev Returns the state of a specific project.\r\n     * @param projectId The ID of the project.\r\n     * @return The state of the project.\r\n     */\r\n    function getProjectState(uint256 projectId) public view returns (ProjectState) {\r\n        require(projectId < numProjects, \"Invalid project ID\");\r\n        return projects[projectId].state;\r\n    }\r\n\r\n    /**\r\n    * @dev Sets a project state to complete.\r\n    * @param projectId The ID of the project.\r\n    */\r\n    function setProjectStateComplete(uint256 projectId) public {\r\n        require(projectId < numProjects, \"Invalid project ID\");\r\n        projects[projectId].state = ProjectState.completed;\r\n    }\r\n}\r\n",
  "sourcePath": "C:\\Users\\aliya\\ALI\\(1) - twenty twenty-four\\work, work!\\is4302\\New folder\\is4302\\contracts\\Company.sol",
  "compiler": {
    "name": "solc",
    "version": "0.5.17+commit.d19bba13.Emscripten.clang"
  },
  "schemaVersion": "3.4.16",
  "updatedAt": "2024-04-18T06:53:22.905Z",
  "networkType": "ethereum",
  "devdoc": {
    "details": "This contract represents a company and its projects in a carbon market.",
    "methods": {
      "addCompany(address,string)": {
        "details": "Adds a new company to the carbon market.",
        "params": {
          "companyAddress": "The address of the company.",
          "companyName": "The name of the company."
        },
        "return": "The ID of the newly added company."
      },
      "addProject(string,string,uint256)": {
        "details": "Adds a new project to the carbon market.",
        "params": {
          "daystillCompletion": "The number of days until project completion.",
          "desc": "The description of the project.",
          "pName": "The name of the project."
        }
      },
      "checkCCTListed(address,uint256,uint256)": {
        "details": "Checks if there are sufficient CCT (Carbon Credit Tokens) listed for sale for a project.",
        "params": {
          "cctAmt": "The amount of CCT to check.",
          "companyAddress": "The address of the company.",
          "projectId": "The ID of the project."
        },
        "return": "A boolean indicating whether there are sufficient CCT listed for sale for the project."
      },
      "checkSufficientCCT(address,uint256,uint256)": {
        "details": "Checks if there are sufficient CCT (Carbon Credit Tokens) for a project.",
        "params": {
          "cctAmt": "The amount of CCT to check.",
          "companyAddress": "The address of the company.",
          "projectId": "The ID of the project."
        },
        "return": "A boolean indicating whether there are sufficient CCT for the project."
      },
      "getCCTSold(uint256)": {
        "details": "Returns the amount of CCT sold for a project.",
        "params": {
          "projectId": "The ID of the project."
        },
        "return": "The amount of CCT sold for the project."
      },
      "getCompanyEthBalance(address)": {
        "details": "Returns the ETH balance of a company.",
        "params": {
          "companyAddress": "The address of the company."
        },
        "return": "The ETH balance of the company."
      },
      "getProjectState(uint256)": {
        "details": "Returns the state of a specific project.",
        "params": {
          "projectId": "The ID of the project."
        },
        "return": "The state of the project."
      },
      "getProjectcctAmount(uint256)": {
        "details": "Returns the details of a specific project.",
        "params": {
          "projectId": "The ID of the project."
        },
        "return": "The details of the project."
      },
      "getStakedCredits(address,uint256)": {
        "details": "Returns the staked credits for a project.",
        "params": {
          "companyAddress": "The address of the company.",
          "projectId": "The ID of the project."
        },
        "return": "The amount of staked credits for the project."
      },
      "listCCT(address,uint256,uint256)": {
        "details": "Lists CCT (Carbon Credit Tokens) for sale for a project.",
        "params": {
          "cctAmt": "The amount of CCT to list for sale.",
          "companyAddress": "The address of the company.",
          "projectId": "The ID of the project."
        }
      },
      "projectCompanyOwner(uint256,address)": {
        "details": "Checks if a project is owned by a specific company.",
        "params": {
          "companyAddress": "The address of the company.",
          "projectId": "The ID of the project."
        },
        "return": "A boolean indicating whether the project is owned by the company."
      },
      "sellCCT(address,uint256,uint256)": {
        "details": "Sells CCT (Carbon Credit Tokens) for a project.",
        "params": {
          "cctAmt": "The amount of CCT to sell.",
          "companyAddress": "The address of the company.",
          "projectId": "The ID of the project."
        }
      },
      "setProjectStateComplete(uint256)": {
        "details": "Sets a project state to complete.",
        "params": {
          "projectId": "The ID of the project."
        }
      },
      "setProjectcctAmount(uint256,uint256)": {
        "details": "Sets the amount of CCT for a project.",
        "params": {
          "cctAmt": "The amount of CCT to set.",
          "projectId": "The ID of the project."
        }
      },
      "stakeCredits(address,uint256,uint256)": {
        "details": "Stakes credits for a project.",
        "params": {
          "companyAddress": "The address of the company.",
          "credits": "The amount of credits to stake.",
          "projectId": "The ID of the project."
        }
      }
    },
    "title": "Company"
  },
  "userdoc": {
    "methods": {}
  }
}