{
  "contractName": "ValidatorRegistry",
  "abi": [
    {
      "anonymous": false,
      "inputs": [
        {
          "indexed": false,
          "internalType": "address",
          "name": "validator",
          "type": "address"
        }
      ],
      "name": "ValidatorAdded",
      "type": "event"
    },
    {
      "anonymous": false,
      "inputs": [
        {
          "indexed": false,
          "internalType": "address",
          "name": "validator",
          "type": "address"
        }
      ],
      "name": "ValidatorRemoved",
      "type": "event"
    },
    {
      "constant": true,
      "inputs": [
        {
          "internalType": "address",
          "name": "",
          "type": "address"
        }
      ],
      "name": "validators",
      "outputs": [
        {
          "internalType": "bool",
          "name": "",
          "type": "bool"
        }
      ],
      "payable": false,
      "stateMutability": "view",
      "type": "function"
    },
    {
      "constant": false,
      "inputs": [
        {
          "internalType": "address",
          "name": "_validator",
          "type": "address"
        }
      ],
      "name": "addValidator",
      "outputs": [],
      "payable": false,
      "stateMutability": "nonpayable",
      "type": "function"
    },
    {
      "constant": false,
      "inputs": [
        {
          "internalType": "address",
          "name": "_validator",
          "type": "address"
        }
      ],
      "name": "removeValidator",
      "outputs": [],
      "payable": false,
      "stateMutability": "nonpayable",
      "type": "function"
    },
    {
      "constant": true,
      "inputs": [
        {
          "internalType": "address",
          "name": "_validator",
          "type": "address"
        }
      ],
      "name": "isValidator",
      "outputs": [
        {
          "internalType": "bool",
          "name": "",
          "type": "bool"
        }
      ],
      "payable": false,
      "stateMutability": "view",
      "type": "function"
    }
  ],
  "bytecode": "0x6080604052336000806101000a81548173ffffffffffffffffffffffffffffffffffffffff021916908373ffffffffffffffffffffffffffffffffffffffff16021790555034801561005057600080fd5b5061052b806100606000396000f3fe608060405234801561001057600080fd5b506004361061004c5760003560e01c806340a141ff146100515780634d238c8e14610095578063fa52c7d8146100d9578063facd743b14610135575b600080fd5b6100936004803603602081101561006757600080fd5b81019080803573ffffffffffffffffffffffffffffffffffffffff169060200190929190505050610191565b005b6100d7600480360360208110156100ab57600080fd5b81019080803573ffffffffffffffffffffffffffffffffffffffff1690602001909291905050506102f4565b005b61011b600480360360208110156100ef57600080fd5b81019080803573ffffffffffffffffffffffffffffffffffffffff169060200190929190505050610456565b604051808215151515815260200191505060405180910390f35b6101776004803603602081101561014b57600080fd5b81019080803573ffffffffffffffffffffffffffffffffffffffff169060200190929190505050610476565b604051808215151515815260200191505060405180910390f35b3373ffffffffffffffffffffffffffffffffffffffff166000809054906101000a900473ffffffffffffffffffffffffffffffffffffffff1673ffffffffffffffffffffffffffffffffffffffff1614610236576040517f08c379a000000000000000000000000000000000000000000000000000000000815260040180806020018281038252602a8152602001806104cd602a913960400191505060405180910390fd5b6000600160008373ffffffffffffffffffffffffffffffffffffffff1673ffffffffffffffffffffffffffffffffffffffff16815260200190815260200160002060006101000a81548160ff0219169083151502179055507fe1434e25d6611e0db941968fdc97811c982ac1602e951637d206f5fdda9dd8f181604051808273ffffffffffffffffffffffffffffffffffffffff1673ffffffffffffffffffffffffffffffffffffffff16815260200191505060405180910390a150565b3373ffffffffffffffffffffffffffffffffffffffff166000809054906101000a900473ffffffffffffffffffffffffffffffffffffffff1673ffffffffffffffffffffffffffffffffffffffff1614610399576040517f08c379a000000000000000000000000000000000000000000000000000000000815260040180806020018281038252602a8152602001806104cd602a913960400191505060405180910390fd5b60018060008373ffffffffffffffffffffffffffffffffffffffff1673ffffffffffffffffffffffffffffffffffffffff16815260200190815260200160002060006101000a81548160ff0219169083151502179055507fe366c1c0452ed8eec96861e9e54141ebff23c9ec89fe27b996b45f5ec388498781604051808273ffffffffffffffffffffffffffffffffffffffff1673ffffffffffffffffffffffffffffffffffffffff16815260200191505060405180910390a150565b60016020528060005260406000206000915054906101000a900460ff1681565b6000600160008373ffffffffffffffffffffffffffffffffffffffff1673ffffffffffffffffffffffffffffffffffffffff16815260200190815260200160002060009054906101000a900460ff16905091905056fe4f6e6c7920636f6e7472616374206f776e65722063616e2063616c6c20746869732066756e6374696f6ea265627a7a7231582030164bb98658e40f669270ad47530d4f31c2bcebf1f37fb26a9d33210ac0cec264736f6c63430005110032",
  "source": "pragma solidity ^0.5.0;\n\n/**\n * @title ValidatorRegistry\n * @dev A contract for managing a registry of validators.\n */\ncontract ValidatorRegistry {\n\n    // Events\n    event ValidatorAdded(address validator);\n    event ValidatorRemoved(address validator);\n\n    // State variables\n    address _owner = msg.sender;\n    mapping(address => bool) public validators;\n\n\n    /**\n     * @dev Modifier to restrict access to only the contract owner.\n     */\n    modifier onlyContractOwner() {\n        require(_owner == msg.sender, \"Only contract owner can call this function\");\n        _;\n    }\n\n\n    /**\n     * @dev Modifier to restrict access to only validators.\n     */\n    modifier onlyValidator() {\n        require(validators[msg.sender], \"Only validator can call this function\");\n        _;\n    }\n\n\n    /**\n     * @dev Adds a new validator to the registry.\n     * @param _validator The address of the validator to be added.\n     */\n    function addValidator(address _validator) public onlyContractOwner() {\n        validators[_validator] = true;\n        emit ValidatorAdded(_validator);\n    }\n\n\n    /**\n     * @dev Removes a validator from the registry.\n     * @param _validator The address of the validator to be removed.\n     */\n    function removeValidator(address _validator) public onlyContractOwner() {\n        validators[_validator] = false;\n        emit ValidatorRemoved(_validator);\n    }\n\n\n    /**\n     * @dev Checks if an address is a validator.\n     * @param _validator The address to be checked.\n     * @return A boolean indicating whether the address is a validator.\n     */\n    function isValidator(address _validator) public view returns (bool) {\n        return validators[_validator];\n    }\n}\n",
  "sourcePath": "/Users/anushka/Desktop/IS4302/is4302-Carbon-Credit/contracts/ValidatorRegistry.sol",
  "compiler": {
    "name": "solc",
    "version": "0.5.17+commit.d19bba13.Emscripten.clang"
  },
  "schemaVersion": "3.4.16",
  "updatedAt": "2024-04-20T05:27:02.863Z",
  "networkType": "ethereum",
  "devdoc": {
    "details": "A contract for managing a registry of validators.",
    "methods": {
      "addValidator(address)": {
        "details": "Adds a new validator to the registry.",
        "params": {
          "_validator": "The address of the validator to be added."
        }
      },
      "isValidator(address)": {
        "details": "Checks if an address is a validator.",
        "params": {
          "_validator": "The address to be checked."
        },
        "return": "A boolean indicating whether the address is a validator."
      },
      "removeValidator(address)": {
        "details": "Removes a validator from the registry.",
        "params": {
          "_validator": "The address of the validator to be removed."
        }
      }
    },
    "title": "ValidatorRegistry"
  },
  "userdoc": {
    "methods": {}
  }
}